:020000040800F2
:1000000000200020B9360008C1360008C3360008B9
:1000100000000000000000000000000000000000E0
:10002000000000000000000000000000C5360008CD
:100030000000000000000000C73600084D0E000858
:10004000CB36000800000000CB360008CB36000895
:10005000CB360008CB360008CB360008CB3600087C
:1000600000000000CB360008CB360008CB36000875
:10007000CB360008CB360008CB3600080000000065
:10008000CB3600080000000000000000CB3600085E
:10009000CB360008CB360008CB360008CB3600083C
:1000A000CB360008CB360008CB360008CB3600082C
:1000B000CB3600080548854604F04CFA03F00AFBED
:1000C00003F08EFC00480047FD4A00080020002095
:1000D00010B50021FE4805F040FD10BD10B501210E
:1000E000FB4805F03AFD10BD0246002002E01378FF
:1000F000521C58400B46491EC9B2002BF7D170471D
:1001000000220021835C00E0491C8B42FCDC521C75
:10011000282AF6DB7047FCB50023EE48006A009001
:10012000C0B20190CD20EC4958434418019820708A
:100130002746C0370198B872387B400840003873B2
:1001400000201946222251438E46D9B28C46714670
:100150000918CA17920F511889108200491C821879
:10016000121951700021C6B29170D6706546157192
:10017000BD7A5571491C0429F6DB401C2228E6DBB8
:100180005B1C042BCEDB0098D249801C0862FCBDAE
:1001900010B500220146C0318A720B7B5B085B0000
:1001A0000B73CA724A72FF22C821401C03F0EFFA97
:1001B00010BD7CB5411ECD225143C74A8C18C034B6
:1001C000A37A515C8B4229D204216A461170507087
:1001D000C04D297006220021686C02F036FB002019
:1001E000E871207B800703D4F1206946887003E022
:1001F000A07A6946401C887069468878C043C870F8
:1002000004216846FFF770FF694608710522686C93
:1002100002F0A4FDAE48283005F0AEFD7CBD1CB553
:1002200004216A4611705070AA4C607A217A884283
:1002300001D0022000E0012069468870C043C870E8
:1002400004216846FFF750FF694608710522606C7B
:1002500002F084FD1CBD70B59E4DE87800280BD0DF
:100260000020E87000249C4ECD2060438019FFF7E9
:100270008FFF641C042CF7DB287BFFF79AFF70BD0F
:1002800070B505460E46934C606C02F0D3FE002814
:100290000AD032462946606C02F029FE002801D0BF
:1002A000012070BD002070BD002070BD0020002125
:1002B000894BCD224A43D218C032527A002A01D04B
:1002C0001018C0B2491CC9B20429F2D37047F8B55E
:1002D0007F48283005F059FD7D48783005F055FD00
:1002E0007C4A002090707D48006900906B4668460B
:1002F0000078794D0A381E281DD86846407828288D
:1003000019D80A2817D368468078282813D80A28CD
:1003100011D36846C07828280DD80A280BD30020AE
:10032000CD24195C44432955947809199170401CD7
:100330000428F5DB0AE000200423CD2141436B545F
:100340009178091D9170401C0428F6DB0024FD26DD
:100350002046CD21484340190146C0310A7B324036
:100360000A73FFF715FF641C042CF1DBF8BDF8B528
:100370000024594FCD206043C6193546C035287B2F
:10038000C0070AD15348AB7A721C611C806C01F023
:1003900067FF287B0121084328733046FFF7F8FEEA
:1003A000641C042CE6DBF8BDF8B54A4ECD22F1689A
:1003B000491E5143484A8C180121F17101780429E2
:1003C0000BD8C078F12849D12046FFF7E1FEC034B0
:1003D000207B02210843207340E03E4BCD25DB68A3
:1003E00081785B1E6B433C4D22785D19C03591428C
:1003F00004D9287BFD21084028732FE00179FF29CB
:100400002CD0A97AC3784F1CBB4227D1914219D274
:100410008A0089180B195B1C011D0522184603F080
:10042000A4F9FFF778FEFFF7A2FF00242A48FFF7A0
:10043000AFFE641C042CF9DBA87A401CA87270780B
:10044000401C7070F078002808D07078012805D919
:100450000020F070FF2131717071B0711C4878304C
:1004600005F08AFCF8BD01468A068809920E8001D3
:100470001D2A03D01F2A03D0084670471F3070473B
:100480001D30704710B5134C4178E268914204D199
:10049000FFF78AFF0020207010BD606C02F020FA88
:1004A00010BD70B500240C4ECD2060438219154656
:1004B000C035287BC00716D1AB7A1078834215D39C
:1004C0000448521C611C806C01F0CAFE287B07E0C6
:1004D00074080020B4000020B801002000FC0008CF
:1004E000012108432873641C042CDDDB70BDF8B5C2
:1004F000FB4F3878002804D0FA4805F052FC3C281D
:1005000055DD00253D70F868CD21401EF64C48436E
:100510000119F879002811D10846C030C27A521C5E
:10052000D2B2C272837A09788B4207D3042A05D9E2
:100530008572017B022211430173C572FFF7B1FF7F
:1005400000200126F968491CF960042900DDFE60DD
:10055000F968CD22491E51430A19C032927A615C72
:100560008A4202D3401C0428ECDBB8787978401A20
:10057000030005F0A0FD06041D3939393955D94865
:10058000503005F0F9FB0020FD23CD21414309192E
:10059000C0310A7B1A400A73401C0428F5DB7D70C9
:1005A000FE70FFF7E4FE7D20C00007F029F9F8BDDA
:1005B000CC48503005F0F5FBCC498842F7DDC948FE
:1005C000503005F0D9FB0020FD23CD21414309190E
:1005D000C0310A7B1A400A73401C0428F5DB7D7089
:1005E000FE70FFF7C4FEF8BDBE48503005F0D9FBE1
:1005F000BF498842F7DDBB48503005F0BDFB002005
:10060000FD23CD2141430919C0310A7B1A400A73E9
:10061000401C0428F5DB7D70FE70FFF7A8FEF8BDD6
:10062000B048503005F0BDFBB2498842F7DD78781C
:100630000028F4D0AB48503005F09EFB0020FD238D
:10064000CD2141430919C0310A7B1A400A73401C6D
:100650000428F5DB7878052802D9FE70FFF787FEBD
:100660007D70F8BD7047A449884200DAA1497047FF
:10067000704770B59A4C2146E67A4A6A8D6B501CD9
:10068000896C330005F017FD0A06165428547E4283
:10069000666B747E1421606203F042F8002904D076
:1006A0000021284605F059FA70BD0121284605F0C1
:1006B00054FA70BD0521606203F032F80029F8D1C8
:1006C000284605F034FA002804D00021A06B05F07C
:1006D00044FA70BD0121F9E7097901290FD01421ED
:1006E000606203F01DF80029F3D1284605F01FFAD7
:1006F000002809D00021A06B05F02FFA70BD012160
:10070000284605F02AFA70BD0121F4E70521606250
:1007100003F006F80029F6D1284605F008FA00286B
:1007200004D00021A06B05F018FA70BD0121F9E793
:100730001421606202F0F4FF0029F6D1284605F08A
:10074000F6F9002804D00021A06B05F006FA70BD70
:100750000121F9E70021284605F0FFF970BD0020CE
:1007600060620121284605F0F8F90920E07270BDA9
:1007700060620328FBDB0021284605F0EEF9052026
:10078000E07270BD097901290DD0022910D0606294
:100790001921104602F0C4FF002900D0012128468B
:1007A00005F0DBF970BD0121284605F0D6F970BDD2
:1007B00060626421104602F0B3FF022901DD0121CD
:1007C00000E00021284605F0C8F970BD10B5444C82
:1007D000A06B05F0ACF9012802D148A005F026FC79
:1007E000494805F0A4F9012802D148A005F01EFCF3
:1007F000206C05F09CF9012802D148A005F016FCF8
:1008000010BD1CB5642005F0FDFB042101220092FF
:10081000019105230622072101F0D2FF30494864E7
:10082000414902F073F91CBD10B52E483F497030A4
:10083000016006214160FF2181603D49C16004F0F3
:10084000BFFA2848703004F019FB10BD70B503469C
:100850000025234C2278002A08D02046406C042A28
:1008600007D0052A11D0012A21D025E0FFF7F3FC9B
:1008700022E002F0DFFB012804D01A4805F091FACB
:100880001E2819DD0520207016E002F0D3FB002899
:1008900012D10120207007220021606C01F0D5FFE9
:1008A000606C02F01DF80F4805F066FA04E0491E7E
:1008B0001846FFF7E5FC0546284670BD70B5084CA4
:1008C000E17A2046806C0B0005F0F5FB06043B3B0B
:1008D0003B3B343B01F042F90120E07231E0000083
:1008E000B40000209C080020B801002030750000F2
:1008F000B8880000409C00001CA200006C656431B8
:100900003D313B200D0A0000F8050020776966693B
:100910005F7273743D313B200D0A000072665273A2
:10092000743D313B200D0A00447B0008003000403C
:10093000FF0F000001F089FC002802D0F94805F003
:100940001BFAE07A0325022808D0A06C01F0C3FD51
:1009500000280DD0E07A042810D010E0A06C01F03F
:1009600088FA00280BD0E572EE4805F005FA06E09B
:100970000420E072A06C01F0B3FD00E0E572A06C11
:1009800001F0A9FD00280AD0E07A022807D0A06C67
:1009900001F05BFC002802D0E24805F0EDF9E148E7
:1009A00005F0FFF9E049884201DB0620E07270BDE6
:1009B00030B58BB0142005F025FB1E2105F0C0F8E2
:1009C000DA4CE063012105F0C8F8D948016801223A
:1009D0001204914301600168920091430160142068
:1009E00005F010FB082105F0ABF82064142005F099
:1009F00009FB1F2105F0A4F8A06308220B210C209D
:100A000002F03EFB022106A805F09AF8032101A896
:100A100005F096F8C748C84AC84982610025C562F2
:100A200005F0DFF90121A06B05F097F8E5720021D0
:100A300006A805F092F8002101A805F08EF8BD483F
:100A40000021143805F089F80021206C05F085F8A4
:100A5000B448103805F099F9B24805F096F90BB092
:100A600030BDB2480121C16000214170704738B5E6
:100A7000682005F0C7FAFF2501352B460A22092117
:100A800001F011FEA94C2063682005F0BBFA192380
:100A90005B010322022101F006FEE062342005F032
:100AA000B1FA1521A34A00911623203AE16A00F019
:100AB0006AFB6063284605F0A5FA616B01F01EF839
:100AC000A064E1256D022946E06A05F06BF829462D
:100AD000206B05F067F89AA1E06A01F035FE9CA151
:100AE000206B01F031FE9E4801680902090A01608D
:100AF000322006F085FE8F480121143805F02DF8CC
:100B00000121206C05F029F82946E06A05F04AF831
:100B1000322006F075FEFFF774FEA06C01F01EF89F
:100B20000220E0727F4805F030F9FFF7D0FBFFF7B5
:100B300098FF02F0D0FB38BD10B54278102A15D1CD
:100B40007A4CA17A002912D061698A008918754A05
:100B5000BC328B18811C0522184602F006FE606923
:100B6000401C60616F48D03005F006F910BD811C53
:100B7000A06C01F0ECFB10BD10B56C4CA07A002805
:100B800012D06069042807DA00280DDD6548D030EE
:100B900005F007F9C82807DD62496269BC31A06C1D
:100BA00001F098FB0020606110BD0020704770B517
:100BB000034600206B4D10E080221C78060403D50C
:100BC0004004000C684001E04004000C144200D0D6
:100BD00068405210002AF1D15B1C0A46491EC9B276
:100BE000002AE9D170BD18B500210091017A427A3E
:100BF00083780A404B404D495A40096904780B7884
:100C00001B191A436C4622704A784379C47AD21869
:100C10008379D31A827A2240C479624013436C46A6
:100C200063708A780379D218A270C978C27889185B
:100C30004278007A891A4140E170009818BD70B579
:100C40003A4D49A1286B01F07FFD0024484E49A18F
:100C5000325D286B01F078FD641C0C2CF7DB47A19A
:100C6000286B01F071FD4248FFF7BDFF4449096858
:100C7000814201D1012070BD002070BD0EB54148F8
:100C8000826B416BC06B019200910290FFF78DFF68
:100C90006946087125480922806C01F0E1FB0EBD10
:100CA00008B539A000680090204802226946806C8F
:100CB00001F0D6FB08BD08B5344909680091C11799
:100CC000C90D0918490A4902401A3049091D085C32
:100CD000694688700020C87014480422806C01F0B6
:100CE000BFFB08BD38B5044603F0A6FF2079617943
:100CF00009020818A17909040818E17909060A18F7
:100D00001F4900231031042003F04AFF03F03EFF87
:100D10001FA000680090054802226946806C01F01F
:100D20009FFB38BD64080020804F1200B4000020F3
:100D3000001002400C06002073060008204E000040
:100D4000576966692053657269616C0D0A0000007D
:100D50005265616465722053657269616C0D0A00A9
:100D600018E400E0211000005549442069733A005E
:100D7000ACF7FF1F20256868780000000D0A00000E
:100D800000FC0008407B00088E000000407900084D
:100D9000A500000008B5817800290FD0042906D0ED
:100DA0000E290ED0252901D1FFF79CFF08BD4179FE
:100DB000007909020818FFF77EFF08BDFFF75EFF04
:100DC00008BD4178C01C091FC9B202F0C0F968A073
:100DD00000680090674802226946806C01F040FB81
:100DE00008BD10B5634CA06C01F07DFB62498842E0
:100DF00002DDA06C01F07CFB10BD70B55D4C0325DD
:100E0000E17A2046806C022907D001F064FB0028BB
:100E10000CD0E07A04280FD00FE001F02AF8002867
:100E20000BD0E572554804F0A7FF06E00420E072FD
:100E3000A06C01F055FB00E0E572504804F0B1FFF2
:100E40004F49884201DB0620E07270BD4948816944
:100E5000491C81617047FFF7ABFDFFF708FEFFF704
:100E6000EEFE02F030FA4548D03004F08EFF414CDF
:100E700002F028F9414840214830FFF7E7FC0028FC
:100E800003D03E484830FFF7FDFAFFF730FBE0693A
:100E900002F0B8FA032802D1E069FFF74DFEFFF730
:100EA0006BFEFFF7AAFFA06C01F015FB002810D025
:100EB000E07A02280DD0FFF794FF30492022E0317C
:100EC000A06C01F03FF9002803D02C48E030FFF778
:100ED00061FFA06A401CA062CAE710B5FF2401347C
:100EE00028492246081904F01CFE1421264804F063
:100EF00027FE2548143004F0B7FE2449016003465C
:100F00001833002119605961214A224905F0E0F89F
:100F10001D491A4822464431283804F002FE174879
:100F200022461D491C3804F0FCFD1448103804F01A
:100F300049FF124804F046FF10480F21103004F01A
:100F4000FFFD0E481321243004F0FAFD0B48383021
:100F500004F038FF0948883004F034FF074898301F
:100F600004F030FF0548D03004F02CFF10BD000025
:100F70008E000000B40000207017000064080020FC
:100F8000804F1200EC040020F8050020E07D0008EE
:100F900000000008415E00083C07002030B591B019
:100FA0000225009500240194029401200390102151
:100FB0000491059406910790089409950A940C945D
:100FC0000520C0040B90684604F080F9002802D088
:100FD000002011B030BD07200D900E950F94109495
:100FE00001210DA803F0CCFF002801D00020F0E77C
:100FF0000120EEE710B5FFF7D1FF002800D1FEE792
:1010000010BD10B5344C2168012001432160616896
:10101000324A114061602168314A114021602168E3
:1010200082049143216061683F2212049143616010
:10103000E16A09090901E162216BFF22143291433F
:101040002163616B814361630021A160A169014358
:10105000A16125492348086003F04EFFFFF7CAFF4E
:10106000E168E0140143E160E1688143E16010BDA3
:1010700070B5194E71680C2001401A481A4C0029AD
:101080000DD004290DD008290DD0206070681749B3
:101090000006000F085C2168C140216070BD20601F
:1010A000F4E72060F2E771680F2292041140726841
:1010B00001231B041A408D0CAD1CF16A0907090FAE
:1010C000491C9A4204D102F015FB68432060DDE719
:1010D000074845432560D9E7001002400CB8FF08D7
:1010E000FFFFF6FE00127A00000100207D7B000861
:1010F00000093D00FFB585B005460E4617460024A1
:1011000001A804F05FFE01A804F03FFE11E028688A
:1011100004F066FD00280CD0286801F0E8FA0D28DC
:1011200013D00A2811D000280FD03055641CBC42BF
:1011300006DA01A804F035FE014608988142E6DB94
:1011400000203055204609B0F0BD002CF1DDF7E756
:1011500010B511C801F0CBFA628921688854608902
:101160000022401C80B260816168884200D16281A7
:1011700020896389984205D1401C80B22081884231
:1011800000D1228110BD70B588B00C9C0160426016
:101190001946083004F0E4FE083821461C3004F0FB
:1011A000DFFE04461C3C0021234620331974597489
:1011B000FE4A206824CA0795234606920025069A0F
:1011C000079E01960092002A0BD1079A069E039271
:1011D0000296D20716D0079A069E04960592002A18
:1011E00010D0079E069D0246059604951362059D44
:1011F000049B95625362EE4B53630122001D06F07F
:101200000DF804E000222946001D06F007F82046EC
:1012100008B070BDF7B586B00546174602A804F0C1
:10122000D1FD00200190384602F0C3FA064602A81C
:1012300004F0ABFD1CE0686804F0B5FEB04217DBBB
:10124000002407E02146686804F0C4FE395D884246
:1012500002D1641CB442F5DBB44206D101200190F6
:101260003146686804F042FC09E0686804F050FC0C
:1012700002A804F096FD014607988142DBDB019845
:1012800061E73EB50446C94AD36890681269019384
:1012900002920090606842890281880069460A587B
:1012A000C4A1206801F050FAC6A2C8212046FFF769
:1012B000B1FF3EBD032070470FB4F0B595B00446B2
:1012C00011A804F07FFD0020C04310906E4611A8C5
:1012D00004F05BFD1AE0606804F065FE0746002537
:1012E00012E02946606804F075FE0A281BD02946E2
:1012F000606804F06FFE0D2815D02946606804F080
:1013000069FE00280FD06D1CBD42EADB11A804F075
:1013100048FD01461B988142DDDB109815B0F0BCFA
:1013200008BC04B01847002D01D000270EE060680B
:1013300004F0EEFBEAE7606804F048FE0D2801D0F7
:101340003070761C606804F0E3FB7F1CAF42F2DB78
:10135000606804F0DDFB002030701DAA68461C990F
:1013600002F062FADAE73EB504466168488908810E
:1013700095A1206801F0CCF996A264212046FFF7E0
:1013800049FF002809D06B4694A264212046FFF74C
:1013900093FF012803D000203EBD00203EBD90A158
:1013A000684602F00DFA002801D000203EBD012061
:1013B0003EBD10B502462032537C4B40537400684A
:1013C00001F099F910BD10B50068002903D085A17E
:1013D00001F09EF902E083A101F09AF9012010BD0D
:1013E00010B504466068428902810A467FA12068E0
:1013F00001F0AAF973A264212046FFF70BFF10BD8C
:1014000070B504460D466268508910817BA1206842
:1014100001F07EF96FA264212046FFF7FBFE002851
:1014200009D02B466DA264212046FFF745FF012815
:1014300003D0002070BD002070BD012070BD38B504
:1014400004460025ED4300956168488908816EA136
:10145000206801F05DF95FA264212046FFF7DAFE03
:10146000002809D06B466BA264212046FFF724FFB9
:10147000012803D0284638BD002038BD009838BD6B
:1014800010B543685C891C810B0004F014FE09064A
:101490001712232D283E32430C00002A04D0006886
:1014A0005DA101F051F910BD006863A101F030F9B0
:1014B00010BD006844A101F02BF910BD002A04D032
:1014C00000684AA101F040F910BD00684BA101F08D
:1014D0001FF910BD006843A101F01AF910BD0068A2
:1014E00058A101F015F910BD006857A101F010F9DD
:1014F00010BD002A04D000682EA101F025F910BD0E
:10150000006854A101F004F910BD006854A101F075
:10151000FFF810BD006854A101F0FAF810BDF0B555
:1015200085B004460027FF43684604F04BFC0026C4
:10153000684604F02AFC6068418901812046203019
:101540000490761C2B21206801F0D5F8782006F055
:1015500065F92B21206801F0CEF8782006F05EF9BD
:101560002B21206801F0C7F8684604F005FC11E063
:10157000606804F022FD00280CD1606804F026FDAC
:101580000546606804F0C4FA612D73D0412D71D016
:101590002B2D6FD0684604F004FC0146FF202D304F
:1015A0008142E5DB002F67D07BE063E0907B0008A1
:1015B000D178000841542B574D4F44453D25730DBC
:1015C0000A0000002B6F6B0041542B5443504C4BCE
:1015D0000D0A00002B6F6B3D00000000257300001A
:1015E0006F6E000041542B450D0A000041542B57EB
:1015F00053535349443D25730D0A000041542B5762
:1016000053535349440D0A0041542B544350544FF3
:101610000D0A00002564000041542B4E4554503DF6
:101620005443502C434C49454E542C383038302CC0
:1016300025730D0A0000000041542B57414E4E0DFA
:101640000A0000002B2B2B0041542B454E544D0D0E
:101650000A00000041542B574D4F44450D0A00002D
:1016600041542B5A0D0A000041542B5645520D0A85
:1016700000000000002795E76121206801F03BF899
:10168000684604F079FBFF219D4A91312046FFF71F
:10169000C1FD002805D0049801210174012005B086
:1016A000F0BD984D684604F07CFBA842FADB142E8E
:1016B00000DA46E70498002101740020EFE710B536
:1016C00004466068418901818D492068843101F0B8
:1016D0001FF8002130200155894A64212046FFF778
:1016E00099FD10BDFFB583B00C9F044615461E46FC
:1016F00060684189018182492068743101F008F8ED
:101700007F4AFF2110322D312046FFF783FD00284C
:101710000AD06846E0C0FF217BA22D312046049B01
:10172000FFF7CAFD07B0F0BD0020C043FAE70FB4D1
:10173000F0B591B004460020C04310906E4660683A
:1017400004F031FC0746002512E02946606804F0E9
:1017500041FC0A2811D02946606804F03BFC0D28A2
:101760000BD02946606804F035FC002805D06D1CBC
:10177000BD42EADB109811B0D1E5002D01D0002761
:101780000EE0606804F0C4F9F4E7606804F01EFC41
:101790000D2801D03070761C606804F0B9F97F1C08
:1017A000AF42F2DB606804F0B3F90020307018AA91
:1017B0006846179902F038F8DDE71CB51446049A1C
:1017C000019200930A4623464FA1FFF7B0FF1CBDCC
:1017D000F8B506460F4600200090384601F0E9FFB4
:1017E000054617E0002407E02146706804F0F2FB8C
:1017F000395D884202D1641CAC42F5DBAC4206D1B3
:10180000012000902946706804F070F907E07068C4
:1018100004F07EF9706804F0C6FBA842E2D200989A
:10182000F8BD7047FDE710B5354900689C3100F000
:101830006FFF012010BD10B51C3004F09EFB002886
:1018400001D0002010BD012010BD10B5083004F0FB
:1018500094FB002801D0002010BD012010BDF7B579
:1018600007460E4600243D46203508E0687C315D81
:1018700048406874315D386800F03DFF641C029890
:101880008442F3DBFEBDF0B585B004460F46154635
:101890001E46684604F096FA606841890181002E70
:1018A00010D032463946206800F04EFF144A2946CF
:1018B0002046FFF7AFFC0646684604F066FA002EA5
:1018C00012D116E03946206800F022FFEEE760688A
:1018D00004F073FB002807D1606804F077FB0A2846
:1018E00009D0606804F014F9684604F05AFAA84276
:1018F000EDDB3046D3E6606804F00AF9F9E7000052
:10190000C4150008B80B0000255B5E2C5D2C255B20
:101910005E2C5D2C255B5E2C5D2C25730000000089
:1019200070B5044672B60026254620350121201DDB
:1019300004F013F9287BC0070AD0FA2005F06EFFE7
:101940000021201D04F009F9642005F067FF09E07B
:10195000642005F063FF0021201D04F0FEF8FA204A
:1019600005F05CFF287B40082873761C082EDDDB21
:101970000121201D04F0F1F862B62046303004F059
:10198000FBF970BDF8B504460E4617465048206076
:10199000251D1421284601F001FF3146284605F097
:1019A000B3F9264618363D461421304601F0F6FEBE
:1019B0002946304605F096F900252C20055520468D
:1019C000303004F0FFF93038403004F04DF9014672
:1019D00008468561C5623F4901604038F8BD10B5D1
:1019E0003B490160403004463B482060204604F0FB
:1019F00007FA204604F04CF9403810BD10B5FFF747
:101A0000EEFF04F0F6FA10BD70B504460E46002154
:101A1000201D04F0A2F8052005F0F2FE72B60025A4
:101A20000121201D04F099F8F0070AD0C82005F024
:101A3000F5FE0021201D04F090F8642005F0EEFE74
:101A400009E0642005F0EAFE0021201D04F085F87D
:101A5000C82005F0E3FE76086D1CEDB2082DDFD33B
:101A60000121201D04F079F862B62046303004F0E0
:101A700083F970BD10B504462046303004F091F96A
:101A800032280BDB206A0068E169084201D001209E
:101A900000E00020002801D0002010BD012010BD72
:101AA00010B504460021201D04F057F820463030C0
:101AB00004F06BF910BD10B50021001D04F04DF8C5
:101AC00010BD10B50121001D04F047F810BD000045
:101AD000987D0008F47D0008E07D0008704730B56F
:101AE0000022037806E0845C8D5CAC4201D00020CB
:101AF00030BD521C9342F6DA012030BD10B50160B2
:101B0000002404710121C16004618461743004F017
:101B100059F97438843004F055F98438943004F05D
:101B200051F9943802231022F949A43004F0E6FA5E
:101B3000A4380246803254649464D46414655466B4
:101B4000E8210C54447184600021491C0229FCDB0B
:101B50005465946510BDEF4800687047F0B58DB0CE
:101B6000044609A804F02EF90025EB4E304605F096
:101B700047FE09A804F009F92068FFF753FE206822
:101B8000FFF759FE0028FAD02068FFF7C8FC0023B1
:101B9000C822E2A12068FFF776FEE3A26421206854
:101BA000FFF738FB002807D001ABE1A264212068D1
:101BB000FFF782FB00E06D1C01A92068FFF720FC05
:101BC000002801D1142DF6DB2046FFF7C4FF0146A3
:101BD00001A801F0F5FDD74D00287CD009A804F03C
:101BE000CBF8FF27D44EF53700233A46D3A120681F
:101BF000FFF749FE002804D109A804F0D2F8B0424A
:101C0000F2DB09A804F0B8F800232A46CFA1206827
:101C1000FFF739FE002804D109A804F0C2F8B04249
:101C2000F2DB09A804F0A8F800232A46D1A1206815
:101C3000FFF729FE002804D109A804F0B2F8B04249
:101C4000F2DB09A804F098F82046FFF784FF03466A
:101C50002A46D1A12068FFF716FE002804D109A862
:101C600004F09FF8B042EFDB09A804F085F8A94F13
:101C7000243F20682A46CCA17B68FFF704FE002899
:101C800004D109A804F08DF8B042F2DB2068FFF718
:101C9000D6FB09A804F070F800232A46C9A12068E1
:101CA000FFF7F1FD002804D109A804F07AF8B0424A
:101CB000F2DB00232A46C7A12068FFF7E4FD0028D5
:101CC00004D109A804F06DF8B042F2DB2068FFF7F8
:101CD000AAFD284600E010E005F092FD2068FFF71D
:101CE000AAFD0028FAD02068FFF719FC322005F081
:101CF00087FD642005F084FD21E02068FFF79FFB4D
:101D00001E281CD009A804F037F800232A46ADA1EC
:101D10002068FFF7B8FD002804D109A804F041F8B5
:101D2000B042F2DB00232A46AAA12068FFF7ABFDF0
:101D3000002804D109A804F034F8B042F2DB2046B0
:101D4000843004F022F82046743004F01EF8204657
:101D5000943004F01AF82046A43004F016F8204617
:101D6000B43004F012F80DB0F0BD70B5694D044602
:101D7000243D287AC0070CD12846083004F0F0F939
:101D8000002806D0974804F01DF828460830C046C1
:101D9000C046E86800280CD0012816D0022807D1D8
:101DA0000023C8225DA12068FFF76DFD0320E860D5
:101DB00070BD8C4803F0E9FF8A4803F0DDFF20681E
:101DC000FFF730FD0120E86070BD864803F0E9FFB1
:101DD000FF21F5318842F7DB2068FFF72CFD002852
:101DE000F2D02068FFF79BFB0220E86070BD1FB5B2
:101DF0000446684603F0E6FF474805F001FD6846E3
:101E000003F0C3FF2068FFF70DFD2068FFF713FD07
:101E10000028FAD02068FFF782FB684603F0ACFF89
:101E2000FF25454EF53500232A466FA12068FFF7B0
:101E30002AFD002804D1684603F0B3FFB042F2DB6C
:101E4000684603F0AEFFB042FADB2068FFF767FB9D
:101E5000684603F091FF00232A4666A12068FFF739
:101E600012FD002804D1684603F09BFFB042F2DB6C
:101E7000FEE7F0B58DB00446264D243D287CC00712
:101E80000DD12846103004F06BF9002807D05548D2
:101E9000103003F097FF28461030C046C046206837
:101EA000FFF7D3FC002806D0002720683021095C0A
:101EB000002902D003E0002055E7FFF730FBA869B6
:101EC000002807D00026012817D002281ED003289A
:101ED00012D1CCE0002211462068FFF7D1FA012090
:101EE000A8614048103003F050FF3E48103003F026
:101EF00043FF6869401C6861C9E00BA12068FFF7D7
:101F000067FC002803D00220A861C0E083E07BE0EA
:101F1000C55D000828010020B80B000041542B5675
:101F200045520D0A000000002B6F6B3D00000000C1
:101F300025730000DC0500008813000041542B5776
:101F40004D4F44453D5354410D0A000041542B5719
:101F5000414E4E3D444843502C302E302E302E30D2
:101F60002C302E302E302E302C302E302E302E3085
:101F70000D0A000041542B4E4554503D5443502C03
:101F8000434C49454E542C383038302C302E302EAE
:101F9000302E300D0A00000041542B575353534943
:101FA000443D25730D0A000041542B57534B4559AE
:101FB0003D5750413250534B2C4145532C25730D06
:101FC0000A00000041542B544350544F3D33300D10
:101FD0000A00000041542B544350544F423D3330CB
:101FE0000D0A00008409002041542B52454C440D39
:101FF0000A00000041542B55535249534245535453
:102000003D6F6E0D0A000000FE4803F0CAFEC828AE
:102010003DDBAE613BE0204664300C90009002ABAB
:1020200006AA0AA92068FFF7C8FB042806D0F548CD
:1020300003F0B7FE64282ADBAE6128E0F2A10C9819
:1020400001F0BEFB002810D0EFA102A801F0B8FB00
:1020500000280AD0206800210C9AFFF711FA03200B
:10206000A861E84803F088FE11E0AE610FE0E8A146
:102070002068FFF7ADFB002804D1E24803F091FE91
:10208000642804DB2068FFF71AFBAE61012738469D
:1020900069E6F0B593B00446002501A803F092FE6E
:1020A00020683021095C002901D1FFF738FA0020AF
:1020B00010A9087108A9087508716946087501A872
:1020C00003F063FED34F05AE009609AB0DAA11A92C
:1020D0002068FFF707FB04280BD1CBA105A801F06E
:1020E0006FFB002805D0C8A109A801F069FB0028F2
:1020F00004D101A803F055FEB842E5DB2146643166
:102100000E4605A801F05CFB00280BD005A930465F
:1021100001F071FB7D2233461201BFA12068FFF759
:10212000B2FB05462068FFF7CAFA284013B0F0BD9D
:10213000F72905D00E2903D0042901D000207047CB
:1021400001207047F7B505460027286846686AE011
:1021500031680C5C401C716801F0E2FA3181B64ACA
:102160001178012906D0022909D0032916D00429A3
:1021700049D127E0022C46D10220107043E0A01E76
:10218000122806D8D461022028776C7703201070BB
:1021900039E0022C37D00120107034E0E1B228463B
:1021A000FFF7C6FF002805D0AC770320106204209B
:1021B000107028E0022C02D00120107023E00220D1
:1021C000107020E0D369116A9C469B1C104699420E
:1021D00004DA4A1C02624819047714E0994212D1C9
:1021E0000021012004E02A18127F5118C9B2401CB6
:1021F0009842F8DB0819C0B2002807D0022C0ED094
:102200008D4901200870002F0DD01AE00127624689
:102210002946921C1C31019801F0A7FAF3E7864980
:1022200002200870EFE771893089814201D3091AD1
:1022300002E072685118091A002904D0002100290F
:1022400086D03846FEBD0121F9E70120704770476E
:10225000704710B5017D002901D1FFF77FFC10BD4B
:10226000F8B504460E4615461F462068002120306A
:10227000417402212068FFF79CF8B80039180F4616
:10228000C91D2068FFF795F821212068FFF791F814
:1022900031462068FFF78DF8FAB229462068FFF72B
:1022A000DEFAF0212068FFF784F86079401CC1B2A3
:1022B00061712068FFF77DF820683121095CFFF724
:1022C00078F803212068FFF774F82046843003F083
:1022D00053FDF8BDF8B504460E46154620680021AA
:1022E0002030417402212068FFF763F8A800291804
:1022F0000F4608312068FFF75CF820212068FFF7BF
:1023000058F805212068FFF754F829462068FFF7A0
:1023100050F8FAB231462068FFF7A1FAF0212068A0
:10232000FFF747F86079401CC1B261712068FFF780
:1023300040F820683121095CFFF73BF80321206851
:10234000FFF737F82046843003F016FDF8BDF8B5E6
:1023500004460E46012520680021203041740221E8
:102360002068FFF726F805270D212068FFF721F8E0
:1023700020212068FFF71DF805212068FFF719F8D4
:1023800029462068FFF715F83A4631462068FFF7DE
:1023900066FAF0212068FFF70CF86079401CC1B2A2
:1023A00061712068FFF705F820683121095CFFF7AB
:1023B00000F803212068FEF7FCFF2046843003F07C
:1023C000DBFCF8BD70B504460D46206800212030C6
:1023D000417402212068FEF7ECFF0D212068FEF712
:1023E000E8FF21212068FEF7E4FF07222946206844
:1023F000FFF735FAF0212068FEF7DBFF6079401C1B
:10240000C1B21BE094090020302E302E302E300057
:102410002B6F6B003075000041542B4E4554503DDE
:102420005443502C434C49454E542C383038302CB2
:1024300025730D0A0000000004010020617120686E
:10244000FEF7B7FF20683121095CFEF7B2FF0321D8
:102450002068FEF7AEFF2046843003F08DFC70BD8F
:1024600070B504460E4615462068002120304174A0
:1024700002212068FEF79DFF691D2068FEF799FF85
:10248000EAB231462068FFF7EAF9307880280BD2AB
:102490006079401C6071F0212068FEF78AFF617945
:1024A0002068FEF786FF07E0F0212068FEF781FF35
:1024B000A1682068FEF77DFF20683121095CFEF7E6
:1024C00078FF03212068FEF774FF2046843003F074
:1024D00053FC70BD704710B50068FFF7B6F910BD2A
:1024E00000210171704710B5843003F05AFC10BD13
:1024F00038B536A109680091354C6B4661880A0AE7
:102500005A70997003226946FFF7AAFF6088401C41
:10251000608038BD10B50020002303E00C78491C12
:1025200060405B1C9342F9DB10BD4A78521EF1E714
:10253000704700207047012070470020704710B599
:102540004A780068521CD2B2FFF789F910BD70B505
:102550008CB004462068FFF778F90028FAD020688C
:10256000FEF7DDFF25466435009502AB06AA0AA9F1
:102570002068FFF7B7F8042809D17D2636012B46DD
:10258000324614492068FFF77EF90028F7D020680A
:10259000FFF795F80CB070BD70477047704700208A
:1025A00070470020704710B5044600230122D1B2C5
:1025B0002046FFF7F4FF002800D05B1C521C482A7D
:1025C000F5DD184610BD00207047000077000000C0
:1025D000040100201824000870B5044617E0A06D1F
:1025E000E16D884201D0012000E00020002814D0D5
:1025F000E06D411CE165616D0D5C216EE06D491E71
:1026000001F078F8E1652946201D04F051FE201DF7
:1026100004F06CFE0028E2D170BD012200212046AA
:1026200003F0C8FA70BD30B589B00446201D04F02F
:102630005DFE002830D001220021204603F0BAFAC6
:102640002046FFF7C9FF5B49204606C9079108925B
:102650000121079A089B02930192002A0BD1089A44
:10266000079B04920393D20718D0089A079B0593FF
:102670000692002A12D0089D079C02460346069542
:1026800005949363069C059B1464D3634A4BD364FF
:102690000122001D04F0C2FD09B030BD0022001D62
:1026A00004F0BCFDF8E710B51C4603F09FFA43495F
:1026B00001605430214605F01EF95438446610BDBF
:1026C00010B504463D48206001220021204603F059
:1026D00071FA2046543005F01BF9543810BD10B57E
:1026E000FFF7EEFF03F085FC10BD0120704710B529
:1026F00003F03CFA10BD70B505460C462846E1B221
:10270000543005F00CF92846FFF78DFF204670BDC8
:10271000F8B506460D46002D14D02C4637465437E2
:1027200003E0641C384605F0FAF821780029F8D156
:102730000A21384605F0F3F83046FFF774FF601BB6
:10274000401CF8BD0020F8BD0FB410B592B004468F
:10275000402102A801F022F816AA019202A81599B8
:1027600003F080FC0246402A05DD002012B010BCB8
:1027700008BC04B01847206802A9C36820469847DF
:10278000F4E7F7B50D46002D12D0002A10D02C46E4
:10279000A618009F543704E02178641C384605F0E1
:1027A000BEF8B442F8D10098FFF73DFF601BFEBDB4
:1027B0000020FEBDA47B0008BD780008807D0008D5
:1027C000F8B5069C17460022D24300923A4603F021
:1027D000ABFA0646354630351421284600F0DEFFB8
:1027E0002146284604F090FA35464435781C20D01E
:1027F00000243806000F1FD0012820D0022820D046
:10280000032820D0FE4804F0E1F93907090F012020
:102810008840286010346C603446503414212046BF
:10282000079D00F0BBFF2946204604F05BFA3046C6
:10283000F8BD00202860EFE70924E406E5E7F14C45
:10284000E3E7F14CE1E7F14CDFE7F8B504460F466A
:102850001646052004F0E2FF2046303000210090AB
:1028600003F07BF9022004F0D9FF254644352846C1
:1028700003F08CFB0028FAD13946204603F014FA05
:102880003146204603F010FA022004F0C7FF012170
:10289000009803F062F9F8BDF8B504460E4605202D
:1028A00004F0BCFF204630300021074603F055F904
:1028B000022004F0B3FF25464435284603F066FBAA
:1028C0000028FAD13146204603F0EEF9C4B20220C6
:1028D00004F0A4FF0121384603F03FF92046F8BD7B
:1028E00010B5044636212046FFF7D6FF3A21204690
:1028F000FFF7D2FF34212046FFF7CEFF10BD70B5A1
:1029000006460C46E27A0B213046FFF79EFF227BFB
:102910000C213046FFF799FF627B0D213046FFF70F
:1029200094FFA27B0E213046FFF78FFFE27B0F2141
:102930003046FFF78AFF227C10213046FFF785FFE3
:10294000627C11213046FFF780FFA27C12213046C5
:10295000FFF77BFFE27C13213046FFF776FF227DF5
:1029600014213046FFF771FFA27A0A213046FFF7A3
:102970006CFF627D15213046FFF767FF2546203545
:102980006A7821213046FFF760FFAA78222130467D
:10299000FFF75BFF227E18213046FFF756FF627E6D
:1029A00019213046FFF751FFA27E1A213046FFF76A
:1029B0004CFFE27E1B213046FFF747FF227F1C21A0
:1029C0003046FFF742FF627F1D213046FFF73DFF93
:1029D000EA7823213046FFF738FF2A792421304650
:1029E000FFF733FF6A7925213046FFF72EFFAA79DA
:1029F00026213046FFF729FF6A7A29213046FFF762
:102A000024FF2A7B2C213046FFF71FFF6A7B2D21F4
:102A10003046FFF71AFFAA7B2E213046FFF715FF3D
:102A2000E27803213046FFF710FF2278002130467C
:102A3000FFF70BFFA27802213046FFF706FFE2798D
:102A400007213046FFF701FF227A08213046FFF7C1
:102A5000FCFE627A09213046FFF7F7FEA2790621D3
:102A60003046FFF7F2FEE27D17213046FFF7EDFE1C
:102A7000A27D16213046FFF7E8FE22790421304678
:102A8000FFF7E3FE627905213046FFF7DEFE3046B0
:102A9000FFF726FF70BD70B5044620463030002198
:102AA000064603F05AF8022004F0B8FE25464435E5
:102AB000284603F06BFA0028FAD13021204603F0B3
:102AC000F3F8022004F0AAFE0121304603F045F895
:102AD00070BD70B50446204630300121054603F034
:102AE0003CF8012004F09AFE0021284603F035F856
:102AF000012004F093FE0121284603F02EF829203E
:102B000004F08CFE2046FFF7C6FF70BD70B504468A
:102B10000D4620460121303003F01FF80022082125
:102B2000204603F0DBF83A49204603F0E9F8052097
:102B300004F066FE2046FFF7CCFF34212046FFF765
:102B4000ABFE052004F05CFE29462046FFF7D7FEC9
:102B500030483E2102782046FFF777FE70BD70B501
:102B600005460E4628460121303002F0F6FF284681
:102B70005030012104F018F900220821284603F002
:102B8000ADF82349284603F0BBF8052004F038FED1
:102B90002846FFF79EFF34212846FFF77DFE0520DB
:102BA00004F02EFE0024325DE1B22846FFF74DFE10
:102BB000641C2F2CF7DBC0223E212846FFF745FE80
:102BC00070BDF8B504460D46052004F027FE2046EA
:102BD00030300021074602F0C0FF022004F01EFE44
:102BE00026464436304603F0D1F90028FAD1802039
:102BF00029460143204603F057F8002120460BE008
:102C0000007E00080004004800080048000C00484E
:102C100020A107004801002003F046F8C4B20220BA
:102C200004F0FCFD0121384602F097FF2046F8BD74
:102C3000FEB505460C4616461F46052004F0EEFD7F
:102C4000284630300021019002F087FF022004F076
:102C5000E5FD284644300090009803F097F90028DD
:102C6000FAD1C02021460143284603F01DF8002474
:102C700006E00021284603F017F83055641CE4B242
:102C8000BC42F6D3022004F0C9FD0121019802F0F4
:102C900064FFFEBDFEB505460C4616461F460520E0
:102CA00004F0BCFD284630300021019002F055FFB1
:102CB000022004F0B3FD284644300090009803F051
:102CC00065F90028FAD1402021460143284602F048
:102CD000EBFF002405E0315D284602F0E5FF641CAF
:102CE000E4B2BC42F7D3022004F098FD0121019820
:102CF00002F033FFFEBD10B5044636212046FFF733
:102D0000CBFD3B212046FFF7C7FD10BD70B5064641
:102D10000D4614463046FFF7EEFF23462A463F2174
:102D20003046FFF7B7FF35213046FFF7B5FDC44DFC
:102D300000245036304603F020F9002803D1204605
:102D4000641CA842F6D30024304603F016F900288C
:102D500003D02046641CA842F6D370BD70B505466A
:102D60000E4614462846FFF7C6FF234632463F214B
:102D70002846FFF78FFF35212846FFF78DFD70BDF0
:102D8000F8B504460D46204630300021074602F0D3
:102D9000E4FE022004F042FD26464436304603F0AD
:102DA000F5F80028FAD1C02029460143204602F058
:102DB0007BFF0021204602F077FFC4B2022004F01E
:102DC0002DFD0121384602F0C8FE2046F8BD70B541
:102DD000054635212846FFF75FFD3A212846FFF7D3
:102DE000CFFF0446200607D536212846FFF754FDBD
:102DF0003B212846FFF750FD600601D0002070BD42
:102E0000012070BDF8B506460F4615463B213046F9
:102E1000FFF7B6FF40062CD03F213046FFF7D1FE2A
:102E200004462878A04219D323463A463F2130462B
:102E3000FFF7FEFE2C7002236A463F213046FFF763
:102E4000F7FE684600784036307368464078707305
:102E50006846407800060ED50120F8BD2C7036215A
:102E60003046FFF719FD3A213046FFF715FD0020E7
:102E7000F8BD0020F8BD0020F8BDF8B506460C46A8
:102E80003B213046FFF77CFF40062CD03F213046E7
:102E9000FFF797FE05462078A84219D32B46621CFF
:102EA0003F213046FFF7C4FE257002236A463F21CA
:102EB0003046FFF7BDFE68460078403630736846FE
:102EC000407870736846407800060ED50120F8BD42
:102ED000257036213046FFF7DFFC3A213046FFF7F8
:102EE000DBFC0020F8BD0020F8BD0020F8BDF8B5DF
:102EF00006460D4617463B213046FFF741FF400688
:102F00002BD03F213046FFF75CFE0446BC4219DC63
:102F100023466A1C3F213046FFF78AFE2C700223AD
:102F20006A463F213046FFF783FE68460078403608
:102F3000307368464078707368464078000612D552
:102F40000120F8BD2C7036213046FFF7A5FC3A2150
:102F50003046FFF7A1FC0020F8BD3F213046FFF7C7
:102F600030FE0020F8BD0020F8BD70B505463421C4
:102F70002846FFF791FC3B212846FFF701FF044656
:102F8000200607D536212846FFF786FC3A21284639
:102F9000FFF782FC600601D0002070BD012070BDEB
:102FA00070B50446052004F039FC2046303000217D
:102FB000054602F0D2FD022004F030FC26464436DD
:102FC000304602F0E3FF0028FAD1F021204602F05B
:102FD0006BFEC4B2022004F021FC0121284602F05D
:102FE000BCFD204670BD10B53D21FFF755FC10BD5E
:102FF0004030007B802805D3FF21081A40084A3062
:10300000C0B2704740084A30C0B270474030407B81
:103010003F218006800E081A704710B504463621FD
:103020002046FFF739FC3A212046FFF735FC10BD5A
:103030000020704710B5503002F09FFF10BD000017
:1030400040420F0010B573480121406802F085FD31
:1030500010BD10B56F480021406802F07EFD10BD24
:103060006C484068816809684068014201D00120CD
:1030700000E00020012801D00020704701207047A7
:1030800070B504460D461646702002F0BBFF2A4676
:103090002146FEF777FC5F4C2060142002F0B2FF5F
:1030A0000546142100F07AFB3146284603F02CFE39
:1030B0006560FFF7CEFF2068FEF7F2FC564802F08D
:1030C00064FE70BD38B5534D2868FEF7D3FC002868
:1030D0000BD1FFF7C5FF002826D04F484C3804F02D
:1030E000C5FB002802D0FFF7B4FF38BD4A4802F004
:1030F00058FE1E28F9DD484C4C3C204604F0B6FB37
:1031000000280BD1606C411C6164205C0090606CF5
:103110008006800E6064002040342072684601788A
:103120002868FEF771FC38BD3B484C3804F09EFB24
:103130000028F8D1FFF786FF374802F01DFE38BDA2
:1031400001B5354869464C3804F073FB08BD70B5CD
:1031500005460E46002405E02F4829194C3804F096
:1031600068FB641CB442F7DB70BD10B50446632CE9
:1031700020D96020FFF7E4FF6421204600F0BAFA6E
:103180000C46002C15D00A2C05D30A21204600F04D
:10319000B1FA683000E03020C0B2FFF7D1FF0A2159
:1031A000204600F0A7FA002903D03031C8B2FFF75B
:1031B000C7FF10BD0A2C10D30A21204600F09AFA4E
:1031C00068300C46C0B2FFF7BBFF21460029F0D0A3
:1031D0003031C8B2FFF7B4FF10BD3034E0B2FFF7B2
:1031E000AFFF10BD0C4900204C39086448644031E1
:1031F0000872704710B508484C38002101644164DA
:1032000048221154054A064902F062FF024802F0C2
:10321000D9FD10BD50010020F00900200000000879
:103220008578000838B5FE480068FFF760FAC5B237
:103230000095FC4C207B002807D0A068401CA060B3
:103240002169A06800F056FAA1606068411C6160C5
:1032500021680D542169606800F04CFA6160606873
:10326000A168884201D10120207338BD10B5034602
:103270000020002202E09C5C6040521C8A42FADB83
:1032800010BD70B50546E64E02213068FFF733FAEF
:10329000002404E0295D3068FFF72DFA641C2878CB
:1032A000C01EA042F6DC2878C01EC1B22846FFF737
:1032B000DDFF022141403068FFF71DFA032130682D
:1032C000FFF719FA70BD08B5D7A0006800906846EE
:1032D000FFF7D7FF08BD10B5D24814384168C06861
:1032E0000160CF480022D149006802F063FCCD485C
:1032F000143002F04AFDCB48243002F046FDFFF7BF
:10330000E2FF10BD022801D0002070470120704765
:10331000401F092801D801207047002070478128EC
:1033200005D0822803D0102801D00020704701204A
:1033300070478078102801D0002070470120704726
:10334000F8B505467D27FF000126B6484030017BD1
:103350000246146900290BD141688268914203D367
:10336000416880680C1A03E081684068611A0C1893
:10337000641E002C17DBAB482146403004F08AFA6B
:103380008068A968081AB8420DD2A6482146403084
:1033900004F080FA0522294600F020FA002804D023
:1033A000641E002CE7DA3046F8BD0026FBE708B5BE
:1033B0009FA0006800906846FFF763FF08BD10B546
:1033C0009C4C207800280ED09648243002F0E9FC6E
:1033D000322807DDFFF7EBFF0020207091482430F2
:1033E00002F0CAFC10BD8F48243002F0DAFC6428D9
:1033F000F8DDFFF768FF012020708A48243002F0D2
:10340000BBFC10BDF1B582B00026FFF7D8FF002548
:10341000BDE0884C2078002803D08248243002F098
:10342000ABFC8048143002F0BCFC642800DD656011
:103430007C48143002F0A0FC6068030002F03BFE00
:1034400006041124394958A768460079FFF75AFF46
:10345000002805D001206060A560E16802200870A6
:1034600095E0684600790746FFF752FF002804D030
:1034700002206060E068477089E03846FFF742FF4D
:10348000002800D1656082E0684600790746FFF7B2
:1034900046FF00280BD0E06887704078052803D9E4
:1034A00003206060A56072E0042060606FE06560EA
:1034B0006DE06846A1680279481C0346A060E06898
:1034C0000918CA7040785B1D984260DC0420606077
:1034D0005DE0E0684178891EC9B2FFF7C7FE694622
:1034E0000979884202D10520606050E065604EE0B5
:1034F00068460079032849D1E068FFF71AFF0028E1
:1035000043D04D4802F04DFC464934318860E168B3
:1035100044480E460522C91C343000F026F9072223
:10352000711C029800F021F93E483430FFF708FF83
:10353000002801D0032600E002263A4F4037387BAE
:10354000002807D0B868401CB8603969B86800F036
:10355000D1F8B9607868411C79600C21484339681A
:103560004118304834304368026880684B600A6014
:1035700088603969786800F0BDF879607868B96862
:10358000884203D10120387300E001266560254C94
:103590006068A168884202D1207B002808D0002002
:1035A000002807D00020002800D032E73046FEBDBA
:1035B0000120F5E7A068411CA1602168085C01902A
:1035C0002169A06800F096F8A16025730120EAE760
:1035D00010B514490522343100F0C7F810BD70B59C
:1035E000104C1D25143C1421204600F0D7F8294624
:1035F000204603F089FB1434802000256560A56017
:103600002573206102F0F9FC206020460B4A0C492A
:1036100002F05EFD2046143002F0D4FB204611E09B
:10362000E4000020140A00200501000025320008F3
:103630000502000058010020540800200000000886
:10364000AF780008243002F0BDFB40340A206560EA
:10365000A56025732061782002F0CFFC2060204611
:10366000024A034902F034FD70BD0000000000086A
:1036700087780008F0B50E4E32680E4FD24392079D
:103680000CD0F50200229300EC58DB191C60521C90
:103690002D2AF8DB326803231A4332608000C019F8
:1036A0000164F0BD034910308000085870470000E5
:1036B0000000014000000020044880470448004703
:1036C000FEE7FEE7FEE7FEE7FEE7FEE70310000881
:1036D000B5000008042104A003F0C2F90349086002
:1036E00003490860FCF7ECFC3A747400280C0020D5
:1036F000140C002030B50B46014600202022012486
:1037000009E00D46D5409D4205D31D469540491B15
:103710002546954040191546521E002DF1DC30BD5E
:1037200070B500242546002801DA01244042002912
:1037300001DA01254942FFF7DDFFAC4200D04042EB
:10374000002C00D0494270BD10B5202A04DB084689
:10375000203AD040002110BD0B46D340D040202459
:10376000A21A91400843194610BD03460B439B071C
:1037700003D009E008C9121F08C0042AFAD203E0E6
:103780000B780370401C491C521EF9D27047D2B20C
:1037900001E00270401C491EFBD270470022F6E790
:1037A00010B513460A4604461946FFF7F0FF2046B7
:1037B00010BD421C0178401C0029FBD1801A7047C3
:1037C00010B5002200E0521C835C8C5CA34201D146
:1037D000002BF8D1D8B2E1B2401A10BD30B5044682
:1037E0000020034600E05B1C934203D2E05CCD5C0A
:1037F000401BF8D030BD03460A780270401C491CBB
:10380000002AF9D11846704730B505460020034616
:1038100000E05B1C934205D2EC5CC85C201A01D12D
:10382000002CF6D130BD000000B58DB009900B9092
:1038300000920020C0430A9000200C90044806909B
:10384000044807906A4609A800F0F8FB0DB000BDD7
:103850005D4000087D4000080FB400B58DB00990B0
:103860000B9010A900200091C0430A9000200C90FA
:1038700006480690064807906A4609A80F9900F086
:10388000DDFB0DB008BC04B0184700005D40000827
:103890007D400008FFB50027FF4383B000205C682F
:1038A00001909E681D46A9697F1C04988847009076
:1038B000296A88470028F6D10098401C0CD00320C4
:1038C00040028443002E19DD600614D500982B2891
:1038D00009D02D280FD103E00020C04307B0F0BD70
:1038E000012080020443A9697F1C04988847761E42
:1038F0000090002E02DD0098302803D005980028A3
:1039000025D035E0012040020443A969761E7F1CC2
:10391000049888470090002E03DD782805D05828A9
:1039200003D00598002810D022E00598002801D087
:1039300010281DD1012040028443A969761E7F1CF6
:10394000049888470090102002E0082000E00A2038
:1039500005900DE0012149020C43059A0199761E5C
:10396000514308180190A9697F1C0498884700906A
:10397000002E05DD0599009800F08BF80028E9DAA3
:10398000E96904988847A00502D40120C043A5E74F
:10399000E00722D1600611D56005019800D54042AC
:1039A00029680A1D2A600968220501D5087014E0FB
:1039B000220701D5088010E008600EE02868011D8C
:1039C00029600068210502D50199017005E02107F1
:1039D000019901D5018000E0016038467EE70000D2
:1039E00070B5054C054D03E0206800198047241D83
:1039F000AC42F9D170BD0000AC800008B88000086E
:103A000010B500F06FFD10BD38B50546684605706D
:103A10000C46086800230122694603F0A7F8002835
:103A200002D00020C04338BDE068401CE06028465A
:103A300038BDF0B51FB40646002082B005464024CC
:103A4000019100901BE0019922460F463046FFF796
:103A50007BFE049A059B801A994110D310461946A3
:103A6000224600F0C6FD361A8F41019722460120FA
:103A70000021009F00F0BDFD38184D410090204608
:103A8000641E0028DFDC019B00982946324607B0FF
:103A9000F0BD3A2800D23038202302469A43412A0A
:103AA00001D310463738884201D30020C043704705
:103AB000FFB50025ED4385B00020009001909F6880
:103AC0005E681C46A1696D1C069888470290216AB1
:103AD00088470028F6D10298401C0CD003204002F1
:103AE0008643002F19DD700614D502982B2809D0C3
:103AF0002D280FD103E00020C04309B0F0BD012004
:103B000080020643A1696D1C069888477F1E0290BB
:103B1000002F02DD0298302803D00798002828D013
:103B200024E0012040020643A1696D1C7F1E069817
:103B300088470290002F03DD782805D0582803D04D
:103B40000798002810D011E00798002801D010280D
:103B50000CD1012040028643A1696D1C7F1E06988E
:103B600088470290102000E008200790C0170390BB
:103B700016E00A20F9E70120400206437F1E039B5E
:103B8000079A0199009800F0F7FC029AD317801861
:103B9000594101910090A1696D1C069888470290D7
:103BA000002F06DD07990298FFF773FF02900028A7
:103BB000E1DAE16906988847B00502D40120C043E4
:103BC0009BE7F00710D1700610D5700505D5009859
:103BD000019B002241429A4101E0019A009920682C
:103BE000031D2360006806C0284686E72068011D83
:103BF00021600068019A0099F5E7FFB5002083B0C5
:103C000000905068019091691446002697680498C6
:103C1000884705460C990698084305D009E0A16934
:103C2000761C049888470546216A2846884700285C
:103C3000F5D1681C03D00198C00704D017E000201C
:103C4000C04307B0F0BD2068011D216000680090EE
:103C50000DE00198C00704D1009805700098401C41
:103C60000090A169761C7F1E049888470546002FA6
:103C70001CDD681C1AD0069800280FD0E817C00E6B
:103C8000401941118A0006994009511840012A1A29
:103C90000968012090400142DBD107E00C98002820
:103CA000D7D1216A284688470028D2D0E1690498F4
:103CB00088470C98002807D1002E05DD0198C00721
:103CC00002D1009800210170A068B84204DD0C9870
:103CD000002804D0002F02D00120C043B1E73046B5
:103CE000AFE70000FFB5087885B01546FF2805D07E
:103CF000491C2D2804D00022002407E000240BE0FA
:103D00000122F9E70A235C430419491C0878FF28BB
:103D1000F8D1002A00D06442002001902A780146A0
:103D20002D2A01D02B2A04D16D1C2D2A0DD0002262
:103D3000019200262F78FF2F09D00A2200236D1C44
:103D400000F01AFC38187141F4E70122F0E7089AF4
:103D5000A218039202460A430DD00024B24AB14D84
:103D60002646009200F06CFE049003980291002811
:103D700007DA47421AE0002105980A4606C009B052
:103D8000F0BD074612E0F80707D022462B46304622
:103D9000009900F093FA0646009122462B46104601
:103DA000194600F08BFA04460D467F10002FEAD129
:103DB0000398009B002802990498324602DA00F02A
:103DC000E5FA01E000F07AFA019A002A02D0012215
:103DD000D2075140059A03C2D1E7FFB591B0002048
:103DE00009900025ED432E209E685C681F460190D7
:103DF000B9696D1C129888470090396A8847002875
:103E0000F6D10098401C0AD00D20C0018443002E3A
:103E100012DD00982B2809D02D280DD103E00020B9
:103E2000C04315B0F0BD012080020443B9696D1C88
:103E300012988847761E009003A9600501D52D20B1
:103E400000E02B206A461073491C0CA80F910290C9
:103E50000AE0B9696D1C1298884700900120400261
:103E600004431398761E0560002E02DD009830286A
:103E7000EFD001990098884246D18020044308E0A1
:103E80000998401E09900120400204431399681CC0
:103E90000860B9696D1C761E12988847009030281A
:103EA000EED031E00199884205D1200603D480206C
:103EB0000443761E1EE0009802F028FA002826D05F
:103EC00001204002044307A90F980331761E88425F
:103ED0000BD200980F99303808700F98401C0F9043
:103EE000200607D50998401E03E0200602D4099851
:103EF000401C0990A00502D51399681C0860B96997
:103F00006D1C129888470090002ECBDC59E0002EE3
:103F100057DD0098652801D0452852D1A00550D51D
:103F2000032000028443B9696D1C761E12988847ED
:103F30000090002E0CDD2B2804D02D2808D1FF2066
:103F400001300443B9696D1C12988847761E0090B1
:103F5000E00501D52D2100E02B2102980170029887
:103F6000401C0290019025E00120400204430EA96C
:103F700002980131761E88420ED20098029930389C
:103F80000006000E087003D10299019881420AD9F7
:103F90000298401C029006E0E00501D5234801E0AC
:103FA000224840420990B9696D1C129888470090D8
:103FB00013980560002E04DD009802F0A7F9002890
:103FC000D2D1F969129888470F99FF200870029999
:103FD00003AA087000200A900B900CA90AA8099B5C
:103FE000FFF780FEA00502D40120C04319E724207A
:103FF000044209D0E00713D138680B9A0A99031DCF
:104000003B60006806C00BE00B990A9800F026FDA3
:104010000146E00704D13868021D3A60006801607B
:104020002846FEE6000024400000F03FF1D8FFFFE4
:1040300002681378511801601846704710B5D160B6
:10404000044951610449116200211161114600F0D7
:10405000FBFA10BD31400008394600084268002ACA
:1040600008D001680B78491C002B03D0521E06C0F3
:10407000184670470121C160881E70474268002AB7
:104080000BD0C3680168002B07D183688B4204D032
:10409000491E521C06C0002070470020C0437047D4
:1040A00000487047A001002070470000004870479A
:1040B000A40100200920704709207047704770470D
:1040C00009207047024801464860001D7047000003
:1040D000A8010020002904DA401C490001D1400851
:1040E0004000704770B40024050C05D11024000472
:1040F00002D1002921D01124050E01D1000208347B
:10410000050F01D10001241D850F01D18000A41CE1
:10411000002801DB4000641C002908D020252E1B4C
:104120000D46F540A14000D0012129430843010676
:104130001B1B000ADB1D02D5002070BC7047DB058D
:10414000181880180029F8DA401C4900F5D170BC15
:104150004008400070470000F0B507460846584048
:1041600087B0C00F049048000E4659004008490827
:10417000BC1A884105D2384631461E4617460B46C2
:1041800002465800400810434CD0300D03904005C3
:104190005900400D490D0590401A0290402872DAEE
:1041A00018030121000B09050843019004980092AF
:1041B000002805D0019952420020884100920190C8
:1041C000029840210A1A0199009800F012FA054657
:1041D0000C466B4607CB00F01CFAC0197141039ADC
:1041E0000E0D0023D71756401A467A40164344D086
:1041F000049A002A2DD0029A012A039A15DC12058E
:10420000C01A914101263605001C7141D20F059E4E
:10421000D2070093019202962A46234600F0BDFB86
:1042200007B0F0BD38463146FAE71605224A0F4678
:10423000B218C01AB74101210905001C4F410018EE
:104240007F41114618187941E20F10436D196441FE
:1042500013E0E2076D0815436408C2071443039A8C
:1042600001261205C01A91413605001C7141CE0786
:10427000400830434908C01851412A46234600F0FF
:104280007FFBCDE7FFE7049801224000C117121A17
:1042900000238B4104983146C417381AA141EEE738
:1042A00030B40124E407634030BC55E730B4012446
:1042B000E407614030BC4FE70000E0FFF0B51FB4F9
:1042C00088B00B990998002448400999C00F49000B
:1042D00049080991C0070B990090490049080B91C2
:1042E00009990898A64608431CD00B990A980843D8
:1042F00018D0099801244000420D4800410D09984A
:1043000024050003000B204309900B980003000BC9
:1043100020430B9050181C4940180022019014466D
:10432000104605E0002001460DB0F0BD032801DA7B
:10433000034600E003239C46C11A0AAE0AE05F0070
:1043400008ADED5B4F00F75B7D430027AA187C4169
:10435000491C5B1E6145F2DD410004AB5A52210449
:10436000120C0A43240C401C0828DFDB0198029041
:104370000099704601910090059B049A0799069850
:1043800000F00BFBD0E700000DFCFFFFF0B50C4682
:104390005C4085B0E40FE40703944C0000266408F9
:1043A00059009446490802460296224321D06246AB
:1043B0000A431ED06200570D4A000E032303550D19
:1043C000012402462C492405781B1B0B360B401890
:1043D00023432643614600901C46501AB44103D340
:1043E0000098401C009002E0921800985B41002861
:1043F00003DA0020014605B0F0BD002001210905C7
:104400000746864611E064461D46141BB54106D397
:104410006546521BB341744607430C43A646CD077D
:1044200040084908284392185B4105460D43EAD1EC
:104430001046184313D06046194650407140084357
:1044400006D06046101AB34106D20122002306E0CE
:1044500000220123DB0702E00122D243531000981F
:1044600074460105381C6141029C039D0019694195
:1044700000F086FABFE70000FD0300004A000903D0
:104480000123090B1B0519430A4B10B5520D9A4223
:1044900002DA0020014610BD064B34339A4203DC99
:1044A0009A1AFFF751F910BD034BD21800F0A1F88A
:1044B00010BD0000FF030000CDFBFFFF10B5002979
:1044C00004DB0124E40740428C412146002B04DB3D
:1044D0001C460123DB075242A341994200D190427E
:1044E00010BD000010B500F00EF80169002903D0DE
:1044F00000220261884701E080688047C046C046CC
:1045000010B5C046C04670B5FFF7DCFD046805462F
:10451000002C15D1202002F09DFC040012D00020B8
:1045200009492C6003C4094921602071A060E06042
:1045300007492061083C002901D000F0ABFAE06196
:10454000204670BDC046C04600000000014500087E
:1045500000000000064C0125064E05E0E36807CC8C
:104560002B430C3C98471034B442F7D3FBF7A6FD1D
:104570008C800008AC800008F0B51FB486B0002025
:104580000090019002900698069980B204900798D6
:10459000090C02040014114307900027089D099894
:1045A00006913E463C4603900398A9B20204000CD3
:1045B000039004982D0C154348430021224600F037
:1045C00018F8C719714110340E46402CECDB384600
:1045D000029A00F00EF8009A019B80180090594151
:1045E00002980191103002904028CCDB00980BB06B
:1045F000F0BD10B5202A04DB0146203A914000208E
:1046000010BD914020239C1A0346E340194390407B
:1046100010BD10B5202A06DBCB170846203A104102
:10462000C1170B4306E00B461341D0402024A21AC9
:1046300091400843194610BD10B50F21C0B2490280
:1046400000F04AFA10BD0000F3B58DB000200A90CA
:1046500001200B90002608460C300C460990626938
:1046600001210998904705002ED0252D2DD0216AD3
:104670008847002818D06269012109989047216A6B
:1046800088470028F7D1411E62690998904700E0E9
:10469000761CA1690D988847216A88470028F7D1C0
:1046A000E1690D988847DAE7A1690D9888470746C0
:1046B000A84201D1761CD2E7E1690D9888477F1C9A
:1046C00002D10A98002877D049E1002762693D4667
:1046D0003946099890472A280CD162690121099826
:1046E0009047012506E00A214F433F18303FEBD4A5
:1046F000102005436269012109989047014630392D
:104700000A2903D29B498F42DEDCECE7E90600D49C
:10471000994F6C280AD04C2810D0682824D06A28D9
:104720002ED074280CD07A280AD00DE062690121BD
:10473000099890476C2823D004211CE020200543D1
:104740006269012109989047A760656065284FD08C
:1047500026DC582839D01ADC452849D012DC252817
:1047600034D04128B0D143E06269012109989047D3
:10477000682802D008210D43E6E70120C002DEE7E9
:104780000220DCE7462833D047282CD130E05B28D4
:1047900070D061282CD063286CD0642823D161E0CC
:1047A0006F284FD009DC662822D0672820D06928DE
:1047B00026D06E2817D12EE0CDE070284DD073287A
:1047C0006FD075284ED078280DD154E0A1690D988E
:1047D00088470546252800D16CE7E1690D98884790
:1047E0006D1C00D16DE7BAE00A224CE00A2252E0CB
:1047F000012023466A46C0430D99FFF7EEFAA3E075
:104800002846402108436060A807234601D50022BE
:1048100039E000223FE0E80700D020E72068011DD2
:1048200021600068290501D5067018E7290701D520
:10483000068014E7A90703D5F117066041600EE76B
:1048400006600CE72846402108436060A80723461D
:1048500001D5082217E008221DE0484928460840F3
:10486000606016E02846402108436060A8072346A0
:10487000BCD5B9E715E02846402108436060A80789
:1048800007D5234610220120C0430D99FFF710F9E8
:104890005AE0234610220120C0430D99FEF7FAFF8B
:1048A00052E000210C910B460091632802D05B2856
:1048B00007D043E0E80601D40120A0600120009069
:1048C0003CE062690121099890475E2805D10120EA
:1048D0000C9001466269099890472169002906D128
:1048E0000B4601AA8F00491CD3510829FADB002886
:1048F00035D0216900290ED1C117C90E09184A11F6
:10490000930001AA9A1849094901411A0120136824
:1049100088400343136062690121099890475D282C
:10492000E5D10C98002808D0002001AB81005A582E
:10493000401CD2435A500828F8DB01AB0120224624
:10494000C0430D99FFF759F900280ADA401C06D137
:104950000B98002803D00020C0430FB0F0BD0A9888
:10496000FBE7E90702D10A99491C0A913618002091
:104970000B9074E6CCCCCC0CFFFFFF7FF1F7FFFF70
:1049800010B5002B08DA0024401C614192185B41ED
:104990001A4301D14008400010BDF0B51FB482B0E9
:1049A00005460C0003D0084601F06EFB02E001F062
:1049B0006BFB20300246009021462846FFF719FE87
:1049C000049B059A04460F4618431143084314D02C
:1049D000184610431BD0009840210A1A1846059922
:1049E000FEF7B2FE05460E46009A05990498FFF7B9
:1049F00000FE084305D0012004E02046394607B0F8
:104A0000F0BD0020C11705430E432C4337430099E6
:104A10000E986305401A7905E40A00220C43FD0A4A
:104A20000A3002D500200146E9E701051019694165
:104A30000C9C0D9D00196941FFF7A2FFDFE7000004
:104A40000EB5054A02920022009213460192FFF72A
:104A5000A4FF03B000BD000033040000CB0FDB0750
:104A6000490010B5490802460A4307D00A0D072439
:104A70000903E401090B121B002A01DC002010BD10
:104A8000C900440F0C43C100E018D2058018FFF79D
:104A900021FB10BD10B5882002F0DCF9002801D000
:104AA0000021017010BD802904D8002802D00178AF
:104AB000002901D0002070470121017008307047A3
:104AC000002803D002460832914201D000207047EE
:104AD00000210170704700007F2801D9002207E003
:104AE000054B42089A5CC00700D112091207120F49
:104AF0000120904008407047387D000810B502F052
:104B00000AFA02F007FAFCF7A6F910BD00210160CD
:104B10004161704770B5044600F04CF9194D0646E6
:104B2000E868C0070DD0601C08D0002C04D000F04D
:104B300041F9801BA04201D9032070BDE868C0077D
:104B4000F1D1E868800601D52020E860E868C00659
:104B500002D4E868400712D5E8680B49C00603D5BF
:104B6000C86902221043C861E868400703D5C869D4
:104B700001221043C8611420E860012070BD0020AC
:104B800070BD000000200240C80A002003480169EF
:104B90008022114301610020704700000020024084
:104BA000F0B51FB4054621480024017E82B01646A8
:104BB000012907D0012707761D48FFF7ABFF002822
:104BC00003D02DE0022007B0F0BD012D1ED0022D34
:104BD0001ED004200090174D039861000F18220189
:104BE00030460599FEF7B0FD104A0021D1612969D0
:104BF00001221143296138800D48FFF78BFF296995
:104C000049084900296100280AD104E0012000E098
:104C100002200090DFE7641C0099E4B28C42DBD3F1
:104C2000024A0021117607B0F0BD0000C80A00203A
:104C300050C300000020024005480169090605D55F
:104C400004494160044941600020704701207047D9
:104C50000020024023016745AB89EFCD0B6800229D
:104C6000002B6FD0F8B401270B6897403B406AD007
:104C70004C68022C01D0122C0ED1D408A4002418A8
:104C8000A446246A5507ED0E0F26AE40B4430E69C4
:104C9000AE40264364462662056856000324B440AD
:104CA000A446A5430C79A407A40FB4402C43046088
:104CB0004C68012C05D0022C03D0112C01D0122CF1
:104CC0000FD185686446A5432C46CD68B540254381
:104CD000856045680C79BD43E406E40F94402C439D
:104CE0004460C4686546AC438D68B5402543C560E3
:104CF0004C68E40049D5294CA56901263543A561D6
:104D0000A469950834400094254CAD002F19BC6867
:104D100095072E0F0F25B540AC430925ED06A84297
:104D200001D1002511E01F4DA84201D101250CE061
:104D30001D4DA84201D1022507E01C4DA84203D118
:104D4000032502E028E020E00525B5402543BD60AD
:104D5000174C25684E689D43F60300D51D4325601A
:104D600065684E689D43B60300D51D436560A56820
:104D70004E689D43F60200D51D43A560E5684E6868
:104D80009D43B60200D51D43E5600B68521CD3401D
:104D900000D068E7F8BC7047704700000010024080
:104DA000000001400004004800080048000C0048D2
:104DB0000004014001480068704700006C010020B9
:104DC000002801D10120704770B504460068C16811
:104DD000C943C90709D1C168C943890705D4C06857
:104DE000C043400701D4012070BD607C002803D17E
:104DF0002074204600F040F80220607421681C48AE
:104E00000860206841686268C908C90011434160B0
:104E100020688168A268090B090311438160154865
:104E2000E168814203D12168096981421BD0FFF703
:104E3000C1FF05462068C06800280DD07D26F60019
:104E4000FFF7B8FF401BB04202D90320607470BD69
:104E50002068C0680028F3D120680169E268090B66
:104E600009031143016101206074002070BD00003E
:104E700055550000FF0F000070470000F8B50446CC
:104E8000007C012814D00125257402206074174984
:104E9000E068884202D121681548086021681548F9
:104EA0000860FFF787FF00267D27FF0000900BE0DA
:104EB0000220F8BDFFF77EFF0099401AB84203D9DF
:104EC000032060742674F8BD2068C168C943C9070F
:104ED00007D1C168C943890703D4C068C0434007EC
:104EE000E8D5657426740020F8BD0000FF0F0000AF
:104EF000AAAA0000CCCC000010B506480168102218
:104F000011430160032000F007F800F016F80020BC
:104F100010BD00000020024010B5044600F01AF950
:104F20007D21C900FEF7E6FB00F01EFC00222146B1
:104F3000501E00F003F8002010BD70478207D30E0A
:104F4000FF229A408907090E994000280BDA0007D2
:104F5000000F0838830808489B001818C36993435A
:104F60000B43C3617047830804489B001B181868F3
:104F7000904308431860704700ED00E000E400E053
:104F8000F8B5044670480F460068F021C007C00F0E
:104F90006E4EB84261D26C480268520852003A43E1
:104FA00002600068C007C00FB8427DD1207880073A
:104FB00004D570688843A168084370602078C007F2
:104FC0004AD06068012820D03168022821D08907A2
:104FD0006AD571688908890001437160FFF7EAFEAC
:104FE00005466068012817D00228706825D00007A0
:104FF000800F31D0564FFFF7DDFE401BB84258D826
:1050000070680007800FF6D18EE0316889034BD5B8
:10501000DFE7890148D5DCE770680007800F0128C9
:105020001AD04B4FFFF7C6FE401BB84241D87068FC
:105030000007800F0128F5D176E00007800F0228D5
:1050400072D0434FFFF7B6FE401BB84231D87068AC
:105050000007800F0228F5D166E02078800704D58C
:1050600070688843A168084370602078C0074ED0FC
:10507000606801281FD03168022820D0890751D5E7
:1050800071688908890001437160FFF793FE054646
:105090006068012816D00228706824D00007800FAD
:1050A00035D0FFF787FE00E03CE0411B28488142F5
:1050B00029D90320F8BD3168890333D5E0E7890198
:1050C00030D5DDE770680007800F01281FD0FFF79B
:1050D00071FE411B1E488142EBD870680007800FAB
:1050E0000128F4D113E00007800F02280FD0FFF74A
:1050F00061FE411B16488142DBD870680007800FB3
:105100000228F4D103E070680007800FC9D10E486F
:10511000016849084900394301600068C007C00FB1
:10512000B84201D00120F8BD2078400706D570684C
:10513000072109028843E168084370600320FFF7F4
:10514000EBFE0020F8BD00000020024000100240ED
:105150008813000030B5164B89B00FCB6C460FC4D6
:10516000144B154D0FCB0FC46A680C20114601403B
:105170001248042912D0082910D19102090F6B4658
:105180005C5CE96A04AB0907090F595CD20303D5DB
:10519000FEF7B0FA604301E0094860436968094AD4
:1051A0000906090F515CC8400749086009B030BDC5
:1051B000A0520008B05200080010024000127A000D
:1051C00000093D00AC7B00080001002030B5194B00
:1051D00089B00FCB6C460FC4174B04AD0FCB0FC576
:1051E000164C62680C20114601401548042912D063
:1051F000082910D19102090F6B465D5CE16A04AB8E
:105200000907090F595CD20303D5FEF773FA684307
:1052100001E00C486843616809060A0F0A498A5C84
:10522000D0400A4A106062685205520F895C09B08A
:10523000C84030BDA0520008B05200080010024023
:1052400000127A0000093D00AC7B0008000100203C
:1052500010B513A00FC888B06C460FC414A30FCBB1
:105260000FC417494A680C20134603401548042B05
:105270000FD0082B0DD193021C0F6B461C5DC96A21
:1052800004AB0907090F595CD20304D5FEF732FAC3
:10529000604308B010BD0C4808B0604310BD00006A
:1052A00002030405060708090A0B0C0D0E0F101067
:1052B0000102030405060708090A0B0C0D0E0F1066
:1052C0000010024000127A0000093D00F8B50446C3
:1052D0000078ED4DC00763D068680007800F012893
:1052E00007D068680007800F022809D16868C003EA
:1052F00006D52868800353D5606800287ED04FE02B
:10530000286801263604B04328602868B100884325
:105310002860FFF74FFD07462868800307D5FFF791
:1053200049FDC01BC8286AD828688003F7D4606884
:1053300001281DD0002801D005281DD02868B043C1
:105340002860296801208004814329606068002862
:1053500018D0FFF72FFD06462868800320D4FFF7FA
:1053600029FD801BC8284AD828688003F7D517E094
:10537000286830432860E9E7286801218904084348
:105380002860F5E7FFF716FD06462868800307D575
:10539000FFF710FD801BC82831D828688003F7D498
:1053A0002078800743D568680007800F07D06868B9
:1053B0000007800F022809D16868C00306D4286856
:1053C000800718D5E068012818D114E0E0680028AB
:1053D00028681BD0012108432860FFF7EBFC064634
:1053E0002868800707D4FFF7E5FC801B642806D8EF
:1053F00028688007F7D52868F82101E042E184E0B9
:1054000088432169C9000843286010E04008400033
:105410002860FFF7CFFC06462868800707D5FFF70E
:10542000C9FC801B642870D828688007F7D42078CE
:10543000000726D5206A0028686A11D00121084398
:105440006862FFF7B7FC0646686A800719D4FFF761
:10545000B1FC801B642858D8686A8007F7D510E033
:10546000400840006862FFF7A5FC0646686A8007AE
:1054700007D5FFF79FFC801B642846D8686A800721
:10548000F7D4207840076AD5E96901200007014375
:10549000E961E9697D4F014000913868B915084319
:1054A0003860FFF787FC06463868C00507D4FFF769
:1054B00081FC801B642828D83868C005F7D5286A85
:1054C000400840002862296A042081432962FFF7CE
:1054D00071FC0746286A6E4E800707D5FFF76AFC05
:1054E000C01BB04273D8286A8007F7D4A06801288F
:1054F0000CD0002801D005281ED0286A40084000A2
:105500002862286A0421884303E060E0286A0121B8
:1055100008432862A068002813D0FFF74BFC074619
:10552000286A80071BD4FFF745FCC01BB0424ED849
:10553000286A8007F7D512E0286A04210843286208
:10554000E4E7FFF737FC0746286A800707D5FFF72F
:1055500031FCC01BB0423AD8286A8007F7D42078C3
:10556000C0061AD56069012833D0401D4FD0686B42
:10557000042108436863686B400840006863FFF7D4
:1055800019FC0646686B800707D5FFF713FC801BE4
:1055900064281CD8686B8007F7D4606A00286FD035
:1055A00069680907890F02296CD001273F06022884
:1055B000286831D0B8432860FFF7FCFB0446286810
:1055C00080015DD5FFF7F6FB001B642855D9032049
:1055D000F8BD686B042108436863686B01210843C8
:1055E0006863FFF7E7FB0646686B800707D4FFF7A1
:1055F000E1FB801B6428EAD8686B8007F7D5686BED
:10560000F8218843A169C90008436863C5E7696B4D
:10561000042081436963F2E7B8432860FFF7CAFBBF
:1056200006462868800107D5FFF7C4FB801B642865
:10563000CDD828688001F7D4E86A216B0009000101
:105640000843E862A16AE06A084369683D221204DF
:10565000914308436860286838432860FFF7AAFB35
:105660000446286880010BD4FFF7A4FB001B6428C4
:10567000ADD828688001F7D502E028688001A1D460
:105680000020F8BD0120F8BD00100240007000406D
:1056900088130000002801D101207047F8B50546A5
:1056A00004464035687F0026002803D12E77204627
:1056B00000F058F802236B7720680168402291437C
:1056C00001600722E0681202904201D9002101E046
:1056D000012109030F273F02B84202D0904200D0B7
:1056E000A662276B002F05D1904201D9236301E008
:1056F00001202063A26860686369104322691A432D
:1057000010430123A2695B021A401043E26910436F
:10571000226A1043A26A104322681060206B02289C
:1057200004D1206802689B001A430260626B606AC1
:10573000A36910431B0C0427E2683B401A43104343
:105740000843216848602168E06A08612068C169EF
:10575000034A1140C1610120266668770020F8BD28
:10576000FFF70000704700000B4910B4401E88424C
:1057700002D910BC01207047084948610848072237
:10578000C3691B021B0A4C042343C36100208861C8
:105790000A6110BC70470000FFFFFF0000E000E05E
:1057A00004ED00E0002801D10120704770B50546E6
:1057B00004466035687A0026002803D12E72204600
:1057C00000F027F802206872206801684908490043
:1057D0000160204600F0E4F8012819D0606A002832
:1057E00002D0204600F076F8206841680922D202F3
:1057F00091434160206881682A229143816020683A
:10580000026801210A4302603046E66669722E7220
:1058100070BD704738B500242049062838D20200F0
:105820007A44127992189744020D161F33290924DD
:105830004A69E4060120400402434A614969014083
:10584000009128E0164C4A69200202434A614969E6
:10585000014000911FE0134C4A69200202434A6153
:1058600049690140009116E00F4C4A69012000058A
:1058700002434A614969014000910CE00B4C4A69BE
:105880000120800502434A6149690140009102E01C
:1058900007A001F09BF9204638BD0000001002402F
:1058A0000004004800080048000C004800140048AC
:1058B00050696E6D6170206572726F723A207772F6
:1058C0006F6E6720706F7274206E756D6265722ED8
:1058D0000000000010B4818CC90707D001684A6835
:1058E00001235B049A43836A1A434A60818C8907C7
:1058F00007D501684A6801231B049A43C36A1A4307
:105900004A60818C490707D501684A6801239B04D6
:105910009A43036B1A434A60818C090707D50168D3
:105920004A680123DB039A43436B1A434A60818C24
:10593000C90607D50268916801231B039943836B4D
:1059400019439160818C890607D501688A68012313
:105950005B039A43C36B1A438A60818C490612D554
:1059600003685A6801210905046C8A4322435A607E
:10597000026C8A4207D10268516803235B05994390
:10598000436C19435160818C090607D501684A6848
:105990000123DB04806C9A4302434A6010BC7047C9
:1059A000F8B504462369A268E5691A4363691020C3
:1059B0002B43002125681A432B680E46454F3B4078
:1059C00013432B6023685A6803252D03AA43E56817
:1059D0002A435A60236AA26925681A43AB680B27D9
:1059E0003F02BB431343AB603B4A2568954210D14D
:1059F0003A4A126B9207920F0ED0012A05D0022A62
:105A000005D0032A09D1022007E0042005E0082080
:105A100003E0334A954200D100200122E369D2031A
:105A200093422DD100280ED0022814D0042818D07B
:105A300008281ED001260A0908071201400F216814
:105A40001043C86025E0FFF7C1FB40006168FDF727
:105A500051FE81B2EFE723486168FDF74BFE81B24A
:105A6000E9E7FFF7F5FB40006168FDF743FE81B20F
:105A7000E1E7012000046168FDF73CFE81B2DAE74E
:105A8000002808D002280FD0042813D008281AD0E4
:105A900001263046F8BDFFF799FB6168FDF72AFE45
:105AA000216880B2C860F4E70F486168FDF722FE04
:105AB00080B20CE0FFF7CCFB6168FDF71BFE2168AC
:105AC00080B2C860E5E710466168FDF713FEE86044
:105AD000DFE70000F369FFFF0038014000100240DB
