:020000040800F2
:10000000001A0020551300087B1300087D13000818
:1000100000000000000000000000000000000000E0
:100020000000000000000000000000007F13000836
:100030000000000000000000811300089315000874
:1000400085130008000000008513000885130008D0
:100050008513000885130008851300088513000820
:1000600000000000851300088513000885130008B0
:1000700085130008851300088513000800000000A0
:100080008513000800000000000000008513000830
:1000900085130008851300088513000885130008E0
:1000A00085130008851300088513000885130008D0
:1000B000851300080548854605F058F804F0F0F867
:1000C00004F088FA004800474B570008001A002047
:1000D000704710B50121FE4806F0EAFA10BD002174
:1000E000FB4806F0E5FAFFF7F3FFFCE710B5027AEC
:1000F000437A8478134054400278634012321343A9
:100100000B7042798379C47AD21A837A22322340DF
:10011000C47963401A434A70027938328A70C278CF
:100120004378007AD21A4E324240CA7010BD3EB5B2
:100130007D25ED00684606F06FFC684606F051FC30
:10014000E44C206B06F0A2FD012803D0684606F0BF
:1001500040FCF6E7684606F04FFCA842F1DDFFF7E9
:10016000B8FF3EBD70B5DB4C0025207CC0070CD12C
:100170002046103006F0A8FE002806D0D64806F02B
:100180004BFC20461030C046C0466169002907D0AC
:100190000026012911D002291FD0032934D12DE0D6
:1001A000206B06F073FD01282ED16061CA4806F06D
:1001B00010FCC94806F015FC26E0206B06F066FD31
:1001C000002808D0C44806F017FC0F281CDB0220CA
:1001D0006061012518E0666116E0206B06F056FDAF
:1001E000002809D0BC4806F007FCBC4988420BDB5C
:1001F00003206061022507E0666105E0206B06F0E0
:1002000045FD002800D16661284670BD70B5FFF736
:10021000A9FF0025AF4C012802D0022810D013E01E
:10022000AF4806F0D6FBA069401CA06103280BDB99
:10023000062020707D20C00008F058FBFFF74FFF1C
:10024000A74806F0C6FBA561A54806F0D5FBFF212F
:10025000F531884200DDA56170BDA249884200DA0F
:10026000A1497047704710B59A480C30006820309B
:1002700006F0BFFA10BD10B596480C30006820306B
:1002800006F0B2FA10BD70B5924C21462678CA69C4
:10029000CD6B501C896C330006F0C1FD0A06165464
:1002A00028547E42666B747E1421E06104F033F8BA
:1002B000002904D00021284606F0FAF970BD01217A
:1002C000284606F0F5F970BD0521E06104F023F839
:1002D0000029F8D1284606F0DAF9002804D00021D8
:1002E000E06B06F0E5F970BD0121F9E7097B012912
:1002F0000FD01421E06104F00EF80029F3D1284654
:1003000006F0C5F9002809D00021E06B06F0D0F90D
:1003100070BD0121284606F0CBF970BD0121F4E73C
:100320000521E06103F0F7FF0029F6D1284606F029
:10033000AEF9002804D00021E06B06F0B9F970BDD9
:100340000121F9E71421E06103F0E5FF0029F6D16E
:10035000284606F09CF9002804D00021E06B06F046
:10036000A7F970BD0121F9E70021284606F0A0F9A0
:1003700070BD0020E0610121284606F099F90920AE
:10038000207070BDE0610328FBDB0021284606F0E9
:100390008FF90520207070BD097B01290DD002293D
:1003A00010D0E0611921104603F0B5FF002900D0FC
:1003B0000121284606F07CF970BD0121284606F08F
:1003C00077F970BDE0616421104603F0A4FF0229B3
:1003D00001DD012100E00021284606F069F970BD29
:1003E0007047704710B53B4CE06B06F050F90128A0
:1003F00002D13EA006F0BAFCA06B06F062F901281B
:1004000002D13DA006F0B2FC3148143806F059F98B
:10041000012802D13CA006F0A9FC2D48283806F09E
:1004200050F9012802D13CA006F0A0FC2848143065
:1004300006F02CFC012802D13BA006F097FC206CB2
:1004400006F03FF9012802D13BA006F08FFC2048BE
:1004500006F037F9012802D13AA006F087FC10BD5A
:10046000F8B51C481B4D4068083505262C1D002892
:1004700072D0842006F058FC002807D0144A18498E
:10048000042368322439009600F0CAFB28608420D7
:1004900006F04AFC002808D0142100910C4A1049AB
:1004A00013236832303900F0BBFB2060206800F075
:1004B000D8FC0421206800F00BFC254E2068317820
:1004C00000F000FC23492068097900F0F5FB44E0C6
:1004D00040030020B400002000020020DC050000E2
:1004E000080600201CA20000409C00006C656431DE
:1004F0003D313B200D0A0000616D705F656E3D313E
:100500003B200D0A000000006175645F656E3D319F
:100510003B200D0A00000000776966695F72737402
:100520003D313B200D0A00007573625F6465743DC8
:10053000313B200D0A00000072665273743D313B5E
:10054000200D0A00706C6F636B3D313B200D0A007B
:10055000808A0008788A000835E0206800F0D8FE1C
:10056000286800F07EFC0421286800F0B1FBFD49FA
:100570002868097800F0A0FB3178286800F0A2FB19
:100580000621F94801F054FD022008F0AFF90C21D2
:10059000F64801F04DFD022008F0A8F90221F448C8
:1005A00001F046FD022008F0A1F90421F14801F014
:1005B0003FFD286800F0ACFE206800F0BFFB286813
:1005C00000F0BCFBF8BD842006F0AEFB002805D08F
:1005D0000423E94AE949009600F022FB20608420C8
:1005E00006F0A2FB002807D00C210091E3490B2361
:1005F000E14A0C3900F014FB286057E77047704758
:1006000070B58AB0DEA001460EC9C06806AC0EC443
:100610000990DF4803F002FDDE4E002803D1DEA181
:10062000706A03F000FE0E226946D94803F03BFDD4
:10063000DEA1706A03F0F7FD0024D54DDEA12A5D2E
:10064000706A03F0F0FD641C0E2CF7D3DCA1706A15
:1006500003F0E9FD0E2206A9CD4803F0F6FC0028C0
:1006600003D1D8A1706A03F0DEFD1821684603F0BB
:1006700090FEDAA1706A03F0D6FD00242A5DCEA1B7
:10068000706A03F0D0FD641C0E2CF7D3CCA1706A05
:1006900003F0C9FD0AB070BD86B0B8480121303002
:1006A00007F05DFBD04900208870BA4C2070B34839
:1006B000303006F0EBFA6060002804D1AF4800212A
:1006C000303007F04CFB606800287CD0742006F0C6
:1006D0002BFB002804D000230A22092106F0A8F9E8
:1006E000A062142006F020FB002802D0082105F0AB
:1006F000D2FF2064142006F017FB002802D011213D
:1007000005F0C9FFA063142006F00EFB002802D0FC
:10071000152105F0C0FFE063142006F005FB00285A
:1007200002D0162106F0B6FA20639A4CE121490264
:10073000A06A05F0DEFF0121E06B05F0B9FF8E48ED
:10074000AA4F40380646AA4803F054FF04460D4617
:1007500030463946203006F0CAF822462B4630464D
:1007600006F0B8F9802006F0DFFA002803D007224F
:10077000102101F04FFB874C606301F0DAFBFFF7BB
:100780002FFE7D480021903805F092FF0021A06BDC
:1007900005F08EFF784801217C3805F089FF0021A3
:1007A000206C05F085FF9349734806F0D5F80122C7
:1007B0000821714806F0BEF87048183006F011F9AB
:1007C0006E48183000E014E006F003F96B4844303E
:1007D00006F007F90020206267480121683805F01B
:1007E00067FF4B256D010726FFF7BCFC012830D0C1
:1007F0001BE1742006F098FA002804D0002303229D
:10080000022106F015F9A062142006F08DFA0028E6
:1008100002D0012105F03FFF2064142006F084FA85
:10082000002802D0112105F036FFA063142006F045
:100830007BFA002802D0162105F02DFFE06314207A
:1008400006F072FA002802D0172106F023FA20637E
:100850006BE74A48443006F0BCF8206A401C20622E
:1008600003287DDB0120207043480121683805F012
:100870001FFFFF2560689135002872D0702006F0B8
:1008800053FA002804D02B460322022103F07AFCFD
:100890006062342006F048FA002807D01A21364A50
:1008A00000911B239C3A616A00F0CFFEE0620420B5
:1008B00006F03AFA002801D001F0B3FB60640F2083
:1008C000800106F031FA002804D0636B626CE16AA3
:1008D00001F0ACFDA064484801680325FF27090228
:1008E000090A0160322008F001F8234801219038FC
:1008F00005F0DEFE0121206C05F0DAFEE12149025F
:10090000606A05F0F6FE322007F0F0FFFFF7A8FD61
:1009100001F08AFBA06C01F0E5FD02202070206B45
:1009200006F0B4F90128FAD014480C3006F059F852
:100930001248443006F055F81048243006F051F8BB
:100940000D4800217C3805F0B3FE2C4801900626A6
:10095000029603972A48049001A805F0E3F851E0B5
:1009600063E06EE0848A00083C8A0008ACF7FF1F51
:10097000CCF7FF1F00580140A8030020E405002029
:10098000550102030405060708090AFF00AA000032
:1009900020FC0008B40000200D0A45726173652038
:1009A0004572726F72210D0A000000000D0A4F722D
:1009B00067696E3A00000000202568685800000052
:1009C0000D0A0000577269746520466C61736820D7
:1009D00054696D656F7574210D0A00000D0A41663A
:1009E0007465723A0000000000100240870200089F
:1009F00000409C4620A1070018E400E000300040C1
:100A0000FF0F000001A805F019F9694F01A805F0D2
:100A1000E5F82078022820D0A06C03F007FA00281F
:100A200026D02078042829D029E0624805F0E4FF88
:100A3000A84200DCD8E6267000215F4805F038FEA9
:100A4000D2E6702006F070F9002804D02B460A2266
:100A5000092103F097FB60621BE7A06C01F018FF0F
:100A600000280CD0257053482C3005F0B2FF06E06A
:100A700004202070A06C03F0DEF900E02570FFF781
:100A8000C5FBA06C03F0D2F900280ED02078022814
:100A90000BD0A06C03F012F9002803D045482C308D
:100AA00005F097FFA06C03F096F942482C3005F052
:100AB000A3FFB84202DB2670FFF711FBA06C007B9E
:100AC00000280ED03B480C3805F096FF3B49884281
:100AD00007DBFFF793FD01F006FC36480C3805F004
:100AE00078FF206A401C206290E738B5FF2401346B
:100AF00033492246081905F0C4FD2F481221283831
:100B000005F0C9FD2C480621143805F0C4FD2D213F
:100B1000294805F0C0FD28482F21143006F0BAF806
:100B20002548283005F042FE26490160203000218A
:100B300005F0E1FE2038244A244906F07DF9002022
:100B4000C04300901C481D231E221F21683005F061
:100B500017FF1D4A1E4906F06FF91749154822462E
:100B60009831243805F08DFD12482246194918386D
:100B700005F087FD0F480C3805F04EFF0D4805F0D5
:100B80004BFF0C480C3005F047FF0A48192118307C
:100B900006F080F807482C3005F03EFF38BD81682C
:100BA00009684068014201D0012070470020704769
:100BB000804F1200FC0500204003002020BF0200EF
:100BC0000C0200206492000800000008316B00084D
:100BD000D1690008D804002010B5084607F086FE49
:100BE00010BD10B501210C3005F062FD10BD10B52F
:100BF00000210C3005F05CFD10BD01218030C1707A
:100C00007047F8B505460E461746002405E0A8686B
:100C1000315D026812689047641CBC42F7DBF8BD86
:100C200070B5049C0D46FC49016045608260194620
:100C30000C3005F030FD0C382146203005F000FE68
:100C40000446203C00212046803001704170012282
:100C50008270C1700121743805F02AFD204670BDF4
:100C600010B5ED4C04604160826019460C3005F00F
:100C700012FD0C380021C943203005F0E1FD044687
:100C8000203C002120468030017041708170C1708D
:100C90000121743805F00CFD204610BD10B5DE4969
:100CA0000160203005F0F4FD203810BD10B5FFF7CD
:100CB000F5FF06F030F810BD8030017070478030CD
:100CC00000787047803041707047803040787047BE
:100CD00070B504460D462046FFF789FF022007F055
:100CE00013FE802029460143A068026812689047DD
:100CF000A06801680A68FF2190470502A0680168A2
:100D00000A68FF219047284385B22046FFF769FF14
:100D1000284670BD10B58221095C002908D020301A
:100D200005F0C2FD012801D0002010BD012010BD3A
:100D30003021FFF7CDFF4006C00F10BD1FB50146A3
:100D4000B6480B4605C8203303920290039C029AD2
:100D5000184601940092C162019A009942630163AE
:100D6000AF4901640021816201221146183006F06A
:100D7000BDFF1FBD10B5203005F04DFD10BD70B595
:100D800004460E4615462046FFF731FF022007F0C5
:100D9000BBFDA06801680A68314690470646A06816
:100DA000290A026812689047A068E9B202681268CE
:100DB00090472046FFF715FF304670BD0A462321B5
:100DC000DDE7F8B504460F4615461E462046FFF7F8
:100DD0000EFFA06801680A68394690470746A06878
:100DE00001680A6829469047A06801680A68314688
:100DF00090472046FFF7F5FE3846F8BDF8B50546A2
:100E00000C4617461E462846FFF7F1FE022007F063
:100E10007BFDA86801680A6821469047A8680168B8
:100E20000A6831469047002405E0A868395D0268E9
:100E300012689047641CB442F7DB2846FFF7D1FEE6
:100E40000020F8BD70B50646002405252D0400E0FD
:100E5000641C3046FFF75EFF002801D1AC42F7DB8F
:100E600070BD1CB504466D498868C9680191009041
:100E7000052007F03BFD6B4A00212046FFF77FFF6E
:100E8000694A01212046FFF77AFF684A022120467D
:100E9000FFF775FF664A04212046FFF770FF634A9B
:100EA000052120322046FFF76AFF5A2207212046FB
:100EB000FFF765FF5F4A08212046FFF760FF092220
:100EC000D20209212046FFF75AFF5B4A0A21204639
:100ED000FFF755FF08220B212046FFF750FF0022A5
:100EE0000C212046FFF74BFF544A0D212046FFF707
:100EF00046FFFF2216212046FFF741FF4E4A1721E9
:100F000008322046FFF73BFF672218212046FFF7F3
:100F100036FF4B4A19212046FFF731FFCF225201FD
:100F20001A212046FFF72BFF132212021B21204615
:100F3000FFF725FF0322D2021C212046FFF71FFFE7
:100F40001522D20220212046FFF719FF3D4A212118
:100F50002046FFF714FF0122520322212046FFF70B
:100F60000EFF0322120223212046FFF708FF6846E6
:100F7000028824212046FFF702FF68464288252187
:100F80002046FFF7FCFE6846828826212046FFF7B0
:100F9000F6FE6846C28827212046FFF7F0FE2A4A5F
:100FA00028212046FFF7EBFE0B22120329212046C1
:100FB000FFF7E5FE254A2A212046FFF7E0FE0F2233
:100FC0002B212046FFF7DBFE0122D2022C212046F6
:100FD000FFF7D5FE1E4A2D212046FFF7D0FE0A203E
:100FE00007F084FC1CBDF7B50D461646052007F03A
:100FF0007DFC0024174F08E060002A5ABA4203D053
:10100000E1B20098FFF7BBFE641CB442F4DB0A2097
:1010100007F06CFCFEBD000030910008448A000817
:1010200061890008E06F000081560000176600002B
:10103000C99C0000906C0000FD7F0000BD480000CE
:1010400059160000C73F000002210000B0FD00005B
:1010500052050000FFFF00007047F8B50446204627
:101060000C300021064605F023FBA06801680A68E1
:1010700007219047A06801680A68002190478120F5
:10108000015D80200143A068026812689047012139
:10109000304605F00DFB0020401C0228FCDB00213F
:1010A000304605F005FBA06801680A68B02190474A
:1010B000A06801680A68FF21904785B20121304687
:1010C00005F0F6FA0020401C0228FCDB28062BD491
:1010D0000021304605F0ECFAA06801680A68B221E8
:1010E0009047A06801680A68FF2190470746381FAB
:1010F000382815D85521606805F0ABFAF9B2606858
:1011000005F0A7FA002509E0A06801680A68FF2138
:101110009047C1B2606805F09CFA6D1CBD42F3DBDC
:101120000121304605F0C4FAF8BDF7B582B0044697
:101130000025002620460C300021019005F0B8FA69
:10114000A06801680A6807219047A06801680A68DA
:10115000002190478120015D80200143A068026842
:10116000126890470121019805F0A2FA0020401C66
:101170000228FCDB0021019805F09AFAA0680168BA
:101180000A68B0219047A06801680A68FF2190476B
:1011900087B20121019805F08BFA0020401C02283B
:1011A000FCDB38062AD40021019805F081FAA068FA
:1011B00001680A68B2219047A06801680A68FF21A7
:1011C000904707460499491E8F4213DA032F11DD19
:1011D0000398751C8755002609E0A06801680A6815
:1011E000FF2190472946039A6D1C5054761CBE423D
:1011F000F3DB01250121019805F05AFA284605B0D4
:10120000F0BD10B580210B5C01220721FFF7D9FD4D
:1012100010BD10B54E4A3421FFF7B1FD10BDF8B531
:1012200005460F4616462846FFF7F3FF2846FFF708
:10123000DEFC022007F068FBA86801680A6832211A
:101240009047A86801680A6831469047002405E085
:10125000A868395D026812689047641CB442F7DBE5
:101260002846FFF7BEFC2846FFF7CBFF0A2007F011
:101270004BFB2846FFF7E6FDF8BD10B504460B21F1
:101280002046FFF725FDFF210131084302460B21CF
:101290002046FFF774FD10BD10B504460B21204613
:1012A000FFF716FDFF210131884302460B2120463E
:1012B000FFF765FD10BD10B50921FFF709FD000B13
:1012C00010BD70B504460D4609212046FFF700FD0C
:1012D0000005000D290301438AB209212046FFF7CA
:1012E0004EFD70BD10B50A4608232421FFF786FD88
:1012F00010BD10B5802211540B4601220721FFF7C3
:1013000060FD10BD10B500220721FFF738FD10BDAC
:1013100010B504462046FFF7F5FF8120035D8020CD
:101320000343002207212046FFF74BFD10BD70B597
:1013300005460C462846FFF7E5FF812044558020EE
:1013400023460343002207212846FFF73AFD70BDDC
:10135000808000000C4880F308880C480168090E62
:101360000B4A914205D10B480B4901600B480C49CF
:1013700001600C4880470C480047FEE7FEE7FEE7A7
:10138000FEE7FEE7FEE70000001A00200400000070
:101390001F00000018100240010000000000014082
:1013A00000000000D3140008B5000008F8B504469A
:1013B0007A4E70680007800F07D070680007800FB2
:1013C00002280AD17068C00307D43068800716D598
:1013D000E068012813D00120F8BD306801210843DE
:1013E000306004F099FB054606E004F095FB401BD5
:1013F000642801D90320F8BD30688007F5D57068EE
:101400000007800F022837D0606A022832D1306886
:1014100001273F06B843306004F07EFB054606E036
:1014200004F07AFB401B642801D90320F8BD306822
:101430008001F5D4F06AE16A000900010843F06216
:10144000A16A206B084371683D221204914308434E
:10145000706030683843306004F05EFB044606E09C
:1014600004F05AFB001B642801D90320F8BD306842
:101470008001F5D50020F8BD0120F8BD30B591B050
:101480000225009501200390099500240A940B94ED
:101490000520C0040C906846FFF788FF002802D0A2
:1014A000002011B030BD07200D900E950F941094C0
:1014B00001210DA804F04CFC002801D00020F0E729
:1014C0000120EEE710B5FFF7D9FF002800D1FEE7B5
:1014D00010BD10B531480168812211430160416897
:1014E0002F4A1140416001682E4A11400160016895
:1014F000012292049143016041683F22120491430A
:101500004160C16A09090901C162016BFF221432FD
:1015100091430163416B49084900416300218160A7
:1015200004F0D2FBFFF7CEFF10BD70B51B4E716803
:101530000C2001401C481D4C00290DD004290DD061
:1015400008290DD02060706819490006000F085C5A
:101550002168C140216070BD2060F4E72060F2E79F
:1015600071680F2292041140726801231B041A4013
:101570008D0CAD1CF16A0907090F491C9A4204D170
:1015800002F0B3FE68432060DDE70A48454325606A
:10159000D9E710B504F090FB10BD00000010024028
:1015A0000CB8FF088FFFF6FE00127A000001002041
:1015B000548A000800093D00FFB583B005460E4679
:1015C00017460024684605F027FA684605F009FA30
:1015D00011E0286805F0ACF800280CD0286802F06B
:1015E000F5FD0D2813D00A2811D000280FD0305552
:1015F000641CBC4206DA684605F0FEF9014606980E
:101600008142E6DB00203055204607B0F0BD002CBB
:10161000F1DDF7E710B511C802F0D8FD6289216845
:10162000885460890022401C80B2608161688842D1
:1016300000D1628120896389984205D1401C80B223
:101640002081884200D1228110BD70B588B00C9CE9
:10165000016042601946083005F01CFB083821463D
:101660001C3005F017FB04461C3C002130200155BE
:10167000F748236805C8079206900698079A0192D2
:10168000009000280BD10798069A03900292C00799
:1016900017D00798069A04920590002811D0079E4B
:1016A000069D18462246059604954262059D049AB9
:1016B000C5628262E74A826301620122181D06F058
:1016C000B7FD204608B070BDF7B584B00546174693
:1016D00001A805F0A1F900200090384602F064FE50
:1016E000064601A805F07DF91CE0686805F0E8FAF7
:1016F000B04217DB002407E02146686805F0F7FADE
:10170000395D884202D1641CB442F5DBB44206D193
:10171000012000903146686804F080FF09E06868A5
:1017200004F08EFF01A805F067F901460598814293
:10173000DBDB009869E73EB50446C54AD36890688C
:1017400012690193029200906068428902818800C8
:1017500069460A58C0A1206802F065FDC2A2C821EE
:101760002046FFF7B1FF3EBD032070470FB4F0B530
:1017700095B0044612A805F04FF90020C04311901F
:1017800001AE12A805F02DF91AE0606805F098FA8C
:101790000746002512E02946606805F0A8FA0A28E5
:1017A0001BD02946606805F0A2FA0D2815D02946FD
:1017B000606805F09CFA00280FD06D1CBD42EADB82
:1017C00012A805F019F901461B988142DDDB11983A
:1017D00015B0F0BC08BC04B01847002D01D000279C
:1017E0000EE0606804F02CFFEAE7606805F07BFA21
:1017F0000D2801D03070761C606804F021FF7F1C3A
:10180000AF42F2DB606804F01BFF002030701DAABD
:1018100001A81C9902F002FEDAE73EB504466168B1
:101820004889088191A1206802F0E1FC92A264211C
:101830002046FFF749FF002809D06B4690A264219B
:101840002046FFF793FF012803D000203EBD002073
:101850003EBD8CA1684602F0AEFD002801D00020FC
:101860003EBD01203EBD10B5006802F0B3FC10BDC6
:1018700010B50068002903D083A102F0B8FC02E093
:1018800081A102F0B4FC012010BD10B504466068CF
:10189000428902810A467EA1206802F0C4FC72A23D
:1018A00064212046FFF710FF10BD70B504460D46B9
:1018B0006268508910817AA1206802F098FC6EA2BB
:1018C00064212046FFF700FF002809D02B466CA2B8
:1018D00064212046FFF74AFF012803D0002070BD95
:1018E000002070BD012070BD38B504460025ED43D1
:1018F00000956168488908816CA1206802F077FC36
:101900005DA264212046FFF7DFFE002809D06B4668
:1019100069A264212046FFF729FF012803D0284649
:1019200038BD002038BD009838BD10B543685C89CB
:101930001C810B0005F073FA09061712232D283EAF
:1019400032430C00002A04D000685CA102F06BFC5A
:1019500010BD006861A102F04AFC10BD006843A1FF
:1019600002F045FC10BD002A04D0006848A102F036
:101970005AFC10BD00684AA102F039FC10BD006895
:1019800041A102F034FC10BD006857A102F02FFC09
:1019900010BD006855A102F02AFC10BD002A04D039
:1019A00000682DA102F03FFC10BD006852A102F0BA
:1019B0001EFC10BD006853A102F019FC10BD0068A8
:1019C00052A102F014FC10BDF0B585B0044600270A
:1019D000FF43684605F020F80025684605F001F849
:1019E0006068418901812046203003906D1C2B21C5
:1019F000206802F0EFFB782006F086FF2B2120689C
:101A000002F0E8FB782006F07FFF2B21206802F02F
:101A1000E1FB684604F0DDFF0FE0606805F05AF96D
:101A200000280AD1606805F05EF90646606804F097
:101A300007FE612E71D02B2E6FD0684604F0DCFFBC
:101A40000146FF202D308142E7DB002F67D07BE08D
:101A5000648A0008A389000841542B574D4F444520
:101A60003D25730D0A0000002B6F6B0041542B5471
:101A700043504C4B0D0A00002B6F6B3D00000000E3
:101A8000257300006F6E000041542B450D0A0000C5
:101A900041542B5753535349443D25730D0A0000BD
:101AA00041542B5753535349440D0A0041542B546E
:101AB0004350544F0D0A00002564000041542B4E42
:101AC0004554503D5443502C434C49454E542C38BA
:101AD0003038302C25730D0A0000000041542B577C
:101AE000414E4E0D0A0000002B2B2B0041542B457C
:101AF0004E544D0D0A00000041542B574D4F4445A4
:101B00000D0A000041542B5A0D0A000041542B5677
:101B100045520D0A00000000FFE7002795E761210C
:101B2000206802F057FB684604F053FFFF21984AF3
:101B300091312046FFF7C8FD002805D00398012108
:101B40000174012005B0F0BD924E684604F054FFC8
:101B5000B042FADB142D00DA48E703980021017443
:101B60000020EFE710B5044660684189018188498B
:101B70002068843102F03BFB002130200155844A6B
:101B800064212046FFF7A0FD10BDFFB583B00C9F78
:101B9000044615461E466068418901817C492068DB
:101BA000743102F024FB7A4A642110322046FFF798
:101BB0008BFD002808D06846E0C077A2642120464B
:101BC000049BFFF7D3FD20E50020C0431DE50FB4C3
:101BD000F0B591B004460020C04310906E46606896
:101BE00005F06EF80746002512E02946606805F00A
:101BF0007EF80A2811D02946606805F078F80D288B
:101C00000BD02946606805F072F8002805D06D1CDD
:101C1000BD42EADB109811B0DBE5002D01D00027B2
:101C20000EE0606804F00CFDF4E7606805F05BF816
:101C30000D2801D03070761C606804F001FD7F1C17
:101C4000AF42F2DB606804F0FBFC0020307018AAA1
:101C50006846179902F0E2FBDDE71CB51446049ACA
:101C6000019200930A4623464BA1FFF7B0FF1CBD2B
:101C7000F8B506460F4600200090384602F094FB67
:101C8000054617E0002407E02146706805F02FF8AC
:101C9000395D884202D1641CAC42F5DBAC4206D10E
:101CA000012000902946706804F0B8FC07E07068D5
:101CB00004F0C6FC706805F003F8A842E2D2009870
:101CC000F8BD7047FDE710B5314900689C3102F05E
:101CD0008EFA012010BD10B51C3004F0E8FF00287A
:101CE00001D0002010BD012010BD10B5083004F057
:101CF000DEFF002801D0002010BD012010BDF8B586
:101D000005460E461746002404E0315D286802F0BF
:101D100061FA641CBC42F8DBF8BDFEB504460F4610
:101D200015461E46684604F077FE606841890181C9
:101D3000002E10D032463946206802F074FA144A58
:101D400029462046FFF7C0FC0646684604F049FED7
:101D5000002E12D116E03946206802F048FAEEE76C
:101D6000606804F0B7FF002807D1606804F0BBFF8B
:101D70000A2809D0606804F063FC684604F03CFE61
:101D8000A842EDDB3046FEBD606804F059FCF9E77F
:101D9000681A0008B80B0000255B5E2C5D2C255BE3
:101DA0005E2C5D2C255B5E2C5D2C257300000000F5
:101DB00070B5044672B60026254620350121201D47
:101DC00004F076FC287BC0070AD0FA2006F09CFDC0
:101DD0000021201D04F06CFC642006F095FD09E054
:101DE000642006F091FD0021201D04F061FCFA2022
:101DF00006F08AFD287B40082873761C082EDDDB60
:101E00000121201D04F054FC62B62046303004F05D
:101E1000E0FD70BDF8B504460F46164650482060F8
:101E2000251D1421284602F0B4FA3946284605F04B
:101E300073FE14351421284602F0ABFA31462846C9
:101E400005F058FE00212C2001552046303004F0CA
:101E5000E3FD3038403004F0A9FC424901602030F5
:101E6000002104F048FD20383F4901604038F8BDAA
:101E700010B53B490160403004463A482060204696
:101E800004F03BFE204604F0A3FC403810BD10B522
:101E9000FFF7EEFF04F03FFF10BD70B504460E469D
:101EA0000021201D04F004FC052006F01FFD72B681
:101EB00000250121201D04F0FBFBF0070AD0C820FB
:101EC00006F022FD0021201D04F0F2FB642006F044
:101ED0001BFD09E0642006F017FD0021201D04F021
:101EE000E7FBC82006F010FD76086D1CEDB2082D4A
:101EF000DFD30121201D04F0DBFB62B62046303029
:101F000004F067FD70BD10B504462046303004F083
:101F100073FD32280BDB206A0068E169084201D0BA
:101F2000012000E00020002801D0002010BD012089
:101F300010BD10B504460021201D04F0B9FB204659
:101F4000303004F04EFD10BD10B50021001D04F02E
:101F5000AFFB10BD10B50121001D04F0A9FB10BDA1
:101F600040910008649200087892000810B5F94882
:101F7000006844680321204604F0B9FE802813D08D
:101F80000321204604F0B3FE90280DD00321204603
:101F900004F0ADFE81281DD00321204604F0A7FEE9
:101FA00086282DD0002010BD0121204604F09FFE80
:101FB0000A280DD10221204604F099FE002807D0FE
:101FC0000221204604F093FE282801D8012010BDEC
:101FD000002010BD0121204604F089FE08280DD301
:101FE0000221204604F083FE002807D0022120466B
:101FF00004F07DFE282801D8012010BD002010BD6E
:102000000121204604F073FE062801D0002010BDF7
:10201000012010BD704710B5FFF7FCFF04F07BFEF8
:1020200010BDCD4901607047CC4900204870704711
:10203000FEB505460E46684604F0EEFCC84C206826
:10204000FFF760F92068FFF7E4F833462A463221AB
:102050002068FEF7D3FE2068002583210D54FFF78A
:10206000D0F8022006F050FC684604F0BAFC206864
:102070008030C078002804D1684604F0BDFC0428F4
:10208000F5DB20688030C570FEBD08B56B46187062
:1020900059709A7003216846FFF7CAFFB04800687C
:1020A000FFF736F908BD10B503460020002202E014
:1020B0009C5C6040521C8A42FADB10BD07B582B0BE
:1020C000A8A003C801910090A44869464078887090
:1020D000087BC870487B0871887B4871C87B887111
:1020E000CA7108216846FFF7A3FF9D480068FFF703
:1020F0000FF905B000BDF8B505460F460124284686
:1021000004F0DEFD03283DD929892868405C552864
:1021100005D10121284604F0EAFDAA2805D0298925
:102120002868405C55281ED107E0284604F088FA4C
:10213000284604F085FA022424E0FFF717FF002860
:1021400011D00121284604F0D2FD0646284604F0AD
:10215000B7FD0146B01C814214D3284604F070FA42
:102160000024761C0BE0284604F06AFA0AE029896C
:102170002868405C3855284604F062FA641CB44272
:10218000F5DB00242046F8BD01467548006840682C
:10219000B1E701466F4800684068ACE7F0B589B028
:1021A0000E46174606A804F037FC002406A804F0E3
:1021B00018FC03A8FFF7EDFF05466846FFF7E4FFAC
:1021C000002D03D16946897B902902D0002802D0D6
:1021D00005E003AC08E06846807890280ED006A899
:1021E00004F00AFCB042E4DB002C09D00722211DD8
:1021F000384602F0B5F8787809B0F0BD6C46F3E7E0
:102200000020C043F8E770B5544D6878401C6870F2
:1022100000246A7811210020FFF737FF022006F022
:1022200065FB641C032CF4DB70BD70B54B4D687806
:10223000401C687000246A7812210020FFF725FFF7
:10224000022006F053FB641C032CF4DB70BD1CB5AC
:1022500046A318CB01940093404B6C465B78A37067
:10226000E2702071617106216846FFF7E1FE1CBD36
:102270007CB53EA430CC01950094384C65786C4612
:10228000A570E37020716171A27107216846FFF7A4
:10229000CFFE7CBD1CB537A106C9019200916A46EC
:1022A00010702E494978917010715071062168465E
:1022B000FFF7BEFE2A480068FFF72AF81CBD1CB5D0
:1022C0002EA106C90192009169468870244C5D21B7
:1022D0002068FEF7F1FC05216846FFF7A9FE20689B
:1022E000FFF716F81CBD08B526A0006800901B4932
:1022F0004878401C48706946887004216846FFF79A
:1023000097FE17480068FFF703F808BD10B511489D
:102310000068FEF7FDFF12480068FEF7F9FF10BDE8
:1023200070B50C4D28688321095C0024002904D075
:10233000FEF793FE28688030C470094D2868832119
:10234000095C002904D0FEF788FE28688030C4703C
:1023500070BD0000C0000020209100080401002092
:10236000BC00002000100000000000000001000080
:1023700000000000000100010000000060060000F5
:10238000000000000014000104490120087070479B
:1023900010B5034804F040FB10BD0000040100200C
:1023A00034060020F0B587B004A804F035FB002403
:1023B000F74D03F0C5FA002000900195012002902E
:1023C00003A9684603F010FA04A804F00AFB7D276D
:1023D000F04EFF000AE0E00030180CC82946032048
:1023E00003F06AFA002801D10835641C062C04D2D7
:1023F00004A804F001FBB842EDDB03F053FA062C0D
:1024000002D3012007B0F0BD0020FBE7704730B5D4
:102410000022037806E0845C8D5CAC4201D0002091
:1024200030BD521C9342F6DA012030BD70B505462E
:1024300029606A60AB60002428462C7304210D30AB
:1024400001F0A7FF01206861AC61EC610B26B601C9
:10245000A81904F0E1FA801BB325AD00401904F07F
:10246000DBFA401B5B25ED00401904F0D5FA401B58
:10247000B925AD0002230C22C749401904F0F2FC33
:10248000411B0320000208188467C4670726F60171
:1024900088190460446084610477ED239B00BF4A7F
:1024A000C818891814220160426004814481C01A4E
:1024B00000230021FF2225325A4315188A00AA184A
:1024C0006032147694765476D476491C4829F5DD2A
:1024D0005B1C022BEDDB81198C60CC6070BDB048B9
:1024E00000687047F0B58BB0044608A804F094FA71
:1024F0000025FF20E0733022A549A64801F030FFF7
:10250000A84E304606F0F2F908A804F06AFA2068EE
:10251000FFF7D8FB2068FFF7DEFB0028FAD0206821
:10252000FFF752FA0023C8229FA12068FFF7F5FBAE
:10253000A0A264212068FFF7C7F8002807D06B46E7
:102540009EA264212068FFF711F900E06D1C694626
:102550002068FFF7AAF9002801D1142DF6DB2046E8
:10256000FFF7BDFF0146684601F025FF944D0028A6
:102570007ED008A804F02DFAFF27924EF5370023ED
:102580003A4691A12068FFF7C8FB002804D108A8AB
:1025900004F032FAB042F2DB08A804F01AFA002381
:1025A0002A468DA12068FFF7B8FB002804D108A8AF
:1025B00004F022FAB042F2DB08A804F00AFA002381
:1025C0002A468FA12068FFF7A8FB002804D108A89D
:1025D00004F012FAB042F2DB08A804F0FAF920463F
:1025E000FFF77DFF03462A468EA12068FFF795FB83
:1025F000002804D108A804F0FFF9B042EFDB08A8D6
:1026000004F0E7F9664F3C3F20682A4689A17B68C1
:10261000FFF783FB002804D108A804F0EDF9B042CD
:10262000F2DB2068FFF760F908A804F0D2F9002374
:102630002A4687A12068FFF770FB002804D108A86C
:1026400004F0DAF9B042F2DB00232A4684A12068C4
:10265000FFF763FB002804D108A804F0CDF9B042CD
:10266000F2DB2068FFF72FFB284606F03FF900E079
:102670000EE02068FFF72FFB0028F8D02068FFF756
:10268000A3F9322006F032F9642006F02FF921E098
:102690002068FFF729F91E281CD008A804F099F932
:1026A00000232A466AA12068FFF737FB002804D1DF
:1026B00008A804F0A1F9B042F2DB00232A4668A181
:1026C0002068FFF72AFB002804D108A804F094F939
:1026D000B042F2DBB3208000201804F082F90B2016
:1026E0008001201804F07DF95B20C000201804F060
:1026F00078F9B9208000201804F073F92F20000128
:10270000201804F06EF90BB0F0BD0EB50446684613
:1027100004F082F9234806F0E9F8684604F061F90C
:102720002068FFF7CFFA2068FFF7D5FA0028FAD023
:102730002068FFF749F9684604F04BF9FF25214E60
:10274000F53500232A464AA12068FFF7E6FA00285B
:1027500004D1684604F050F9B042F2DB684604F058
:102760004BF9B042FADB2068FFF72EF9684604F017
:1027700030F900232A4641A12068FFF7CEFA00284D
:1027800004D1684604F038F9B042F2DBFEE70000FD
:1027900000FC000868060020196A00089D0300007C
:1027A00044010020B80B000041542B5645520D0A3D
:1027B000000000002B6F6B3D00000000257300003F
:1027C000DC0500008813000041542B574D4F444551
:1027D0003D5354410D0A000041542B57414E4E3D8C
:1027E000444843502C302E302E302E302C302E309A
:1027F0002E302E302C302E302E302E300D0A000090
:1028000041542B4E4554503D5443502C434C494564
:102810004E542C383038302C302E302E302E300D97
:102820000A00000041542B5753535349443D25732C
:102830000D0A000041542B57534B45593D57504109
:102840003250534B2C4145532C25730D0A00000088
:1028500041542B544350544F3D33300D0A00000077
:1028600041542B544350544F423D33300D0A000025
:1028700041542B52454C440D0A00000041542B5545
:1028800053524953424553543D6F6E0D0A000000A8
:10289000F0B58DB00446FA4D287BC0070CD1284610
:1028A0000C3004F011FB002806D0F64804F0B4F810
:1028B00028460C30C046C0462068FFF716FA0028AC
:1028C00006D0002720683021095C002903D004E0ED
:1028D00000200DB0F0BDFFF777F86869002807D039
:1028E0000026012815D0022823D003285DD14CE012
:1028F000002211462068FFF718F801206861E148BE
:1029000004F06FF8DF4804F064F82869401C28617F
:102910004BE0DD492068FFF7ABF9002802D0022028
:10292000686142E0D74804F067F8C8283DDB6E6173
:102930003BE0204668300C90009002AB06AA0AA942
:102940002068FFF78AF9042806D0CE4804F054F82E
:1029500064282ADB6E6128E0CCA10C9801F02BFDE5
:10296000002810D0C9A102A801F025FD00280AD036
:10297000206800210C9AFEF7D8FF03206861C14847
:1029800004F027F811E06E610FE0C2A12068FFF7A4
:102990006FF9002804D1BB4804F02EF8642804DB4A
:1029A0002068FFF7DFF86E610127384691E7F0B540
:1029B00093B00446002502A804F02EF820683021C8
:1029C000095C002901D1FEF7FFFF002010A9087162
:1029D00008A9087508716946087502A804F001F88D
:1029E000AD4F05AE009609AB0DAA11A92068FFF7FF
:1029F000CCF804280BD1A5A105A801F0DCFC002827
:102A000005D0A2A109A801F0D6FC002804D102A893
:102A100003F0F2FFB842E5DB214668310E4605A817
:102A200001F0C9FC00280BD005A9304601F0DEFCFE
:102A30007D223346120199A12068FFF76EF9054601
:102A40002068FFF78FF8284013B0F0BD01207047D1
:102A5000F8B5054600200090286847682E462036C5
:102A600064E039893868445C384603F0E9FD844AFB
:102A70001078012806D0022809D0032816D004288F
:102A800049D127E0552C46D10220107043E0A01E0A
:102A9000122806D89461552030707470032010708D
:102AA00039E0552C37D00120107034E0E1B22846CF
:102AB000FFF7CCFF002805D0B4700320D0610420BC
:102AC000107028E0552C02D00120107023E0022065
:102AD000107020E09369D0699B1C984205DA411C74
:102AE00040192030D161047015E0984213D10021C3
:102AF000012005E02A18203212785118C9B2401C72
:102B00009842F7DB0819C0B2002808D0552C09D02C
:102B10005B49012008700098002807D00BE00120D5
:102B20000090F8E7564902200870F4E7384604F0B0
:102B3000D1F8002895D00098F8BDF8B504460F46A6
:102B400016461D4655212068FEF78DFEA91C2068FB
:102B5000FEF789FEB978802001432068FEF783FEE6
:102B6000F9782068FEF77FFEEAB231462068FFF769
:102B7000C6F8F87880214219B8780843801C1018EC
:102B8000C0B2002103E0725C1018C0B2491CA94217
:102B9000F9DBFF210131081AC1B22068FEF763FE9C
:102BA000B3208000201803F014FFF8BD70B5044670
:102BB00022464032154611702046FF220521413041
:102BC00001F0E0FB214606232A460D312046FFF79F
:102BD000B4FFFF20E07370BD30B502460846032104
:102BE000090253180721C90151184C680EE0FF254E
:102BF000D96F2535694389188500491960314D7EA3
:102C0000002D02D1897E002903D1401C8442EEDAD6
:102C1000002030BDF8B504465B20C00020180646F1
:102C200003F0EAFE0321090265180A280BDCFF21E4
:102C3000E86F253148436169001989004018603008
:102C4000407E00286DD00721C901606967180028FF
:102C500038DC39782046FFF7BFFF606100284FD18C
:102C6000A86FC0B2FFF72BFB1448E96F00688A0019
:102C70001349895CFEF720F80020C04360613FE003
:102C80000801002040060020B4270008302E302E16
:102C9000302E30002B6F6B003075000041542B4EEE
:102CA0004554503D5443502C434C49454E542C38C8
:102CB0003038302C25730D0A00000000BC000020C5
:102CC000788A0008401CC1B22046FFF785FF60618A
:102CD000002815D1F7480068FEF71AFBA86FC0B2AC
:102CE000FFF7EDFAF448E96F00688A00F349895C60
:102CF000FDF7E2FFE069401CE061304603F069FE49
:102D0000E0690A280ADA60693968884209DBC0B2DA
:102D1000FFF7C0FA304603F05CFE02E00020C0433B
:102D200060616069F8BDF8B5044603225B231202B6
:102D3000DB00A069E718A518002812D00722D201ED
:102D4000A61801285DD002287ED0032808D120468D
:102D5000FFF760FF002803DA00212046FFF726FF77
:102D6000F8BD384603F048FE02280CDAA86FC0B25E
:102D7000FFF7A5FAD048E96F00688A00CF49895C5F
:102D8000FDF79AFFF8BD384603F036FE0A28F9DB56
:102D9000384603F031FED22816DAC9480178491CBA
:102DA0000170E86F00280BD0C649896B0091C0B252
:102DB00000220099FFF782F9E069401CE061F8BD4C
:102DC000C049896A0091F2E7A86FC0B2FFF777FAAD
:102DD000B948E96F00688A00B849895CFDF76CFF63
:102DE0000020E061384603F0F4FDE86F0C21484311
:102DF0000119B9208000081803F0EBFD0120A06143
:102E0000F8BD384603F0F8FD0828F9DDA948006848
:102E1000FEF77EFAAA480178491C0170E86F0C2180
:102E200048430119B9208000081803F0E5FDA649C0
:102E3000884202DC317F00291AD0E86F8000011936
:102E40000720C001081800E03FE0027A31793078AD
:102E50008023FFF70DFAE86F802380000119072017
:102E6000C0010818027A31793078FFF701FA17E0CB
:102E7000E96F072089000919C0010818027A317921
:102E800030788123FFF7F4F9E86F8123800001197E
:102E90000720C0010818027A31793078FFF7E8F985
:102EA000E86F0C2148430119B9208000081803F08D
:102EB00090FD0020307780480068FEF729FA3846F8
:102EC00003F087FD0220A061F8BD002906D0384636
:102ED00003F092FD4121C9008842F5DB317820469C
:102EE000FFF77AFE6061002819D0FDF788FBA86F14
:102EF000C0B2FFF7E4F97048E96F00688A006F49D3
:102F0000895CFDF7D9FE6B480068FEF701FA0020E6
:102F1000E061384603F05DFD0320A061F8BD0021AB
:102F20002046FFF743FEF8BD7CB504460D46FF2260
:102F30000821684601F026FA6846057021460823F4
:102F40006A460D312046FFF7F8FDFF20E0735B2055
:102F5000C000201803F03DFD7CBD30B50246084698
:102F60000321090253180721C90151184C680EE0CA
:102F7000FF25D96F253569438918850049196031C6
:102F80008D7E002D02D0C97E002903D0401C8442D2
:102F9000EEDA002030BD032212028218D26FFF2326
:102FA00025335A431018890040186030C07E00282D
:102FB00001D0012070470020704701210322120236
:102FC0008218D26FFF2325335A4312188800101835
:102FD0006030837E002B02D0C07E002804D0491CC4
:102FE0004829F3DD0120704700207047F8B50446FA
:102FF0005B20C0002018054603F0FEFC33498842E0
:1030000052DA284603F0F8FCE169884219DD2846C7
:1030100003F0F2FC001DE0612046FFF7CEFF032124
:103020000902661800280DD000212046FFF77CFF1A
:10303000F06F0C214843B92100198900401803F0B2
:10304000C8FCF8BD0720C0012518A869062805DAC4
:10305000217D2046FFF79FFF00280ED00020A861A9
:1030600061692046491CFFF778FF6061002804D1A0
:1030700020462968FFF771FF6061A869401CA861BC
:103080000F480178491C0170F06F002808D00D49E5
:10309000896B0091227DC0B20099FFF70FF8F8BD4F
:1030A0000849896A0091F5E700212046FFF73CFFB7
:1030B000F8BD0000C0000020BC000020788A000895
:1030C000050100204006002064190000D0FB01002B
:1030D000F8B506460C4603200002FF4D3718B86FBE
:1030E000296B8842E4D02079696B884208D1FB487B
:1030F00003F082FCA96B401AFF212D318842D7DDF5
:1031000069466A46B86FD070862090702079FFF7C4
:103110007DF9324640321070002050700223304654
:10312000FFF70BFD20796863EC4803F065FCA863AA
:10313000BEE7F0B585B006460F4603210902387890
:1031400071180391314641310291491E0191333981
:10315000009108280FD00A280CD33D1D2C78002C94
:103160007FD0697848297CD8091B8A0089180A31E0
:10317000814273D075E07878411E472971D8039950
:10318000FF22C96F25325143891980000818603029
:10319000417E002965D1012141760198797801703D
:1031A0000522391D029801F0DBF8CD48F978007846
:1031B000884206D106233046019A0099FFF7BDFCEC
:1031C0004FE006233046019A0099FFF7B6FC48E02D
:1031D0000398FF21C06F253148438019A100411891
:1031E0006031487E002838D12878201A8200801863
:1031F00040198278FF2A10D1C278FF2A0DD10279B6
:10320000FF2A0AD14279FF2A07D18079FF2804D109
:1032100007220120D201B2181077012048760198C8
:10322000047028780522201A810040184119891C51
:10323000029801F095F8AA48F9780078884206D1FA
:1032400006233046019A0099FFF777FC05E0062334
:103250003046019A0099FFF770FC641C6878A04220
:10326000B6DA787805B0F0BD70B505462C46403426
:1032700008780A282DD1487800282AD0482828D84C
:1032800020700722091D601C01F06AF8032000026B
:103290002818FF23C16F25335943237849199B0010
:1032A000C918A27860310A76C06FFF2125314843E2
:1032B00021784019890040186030C17E002908D16A
:1032C0000121C1762946082322460D312846FFF701
:1032D00034FC70BDC07B112801D0102802D18B783E
:1032E000902B0BD0122801D0012802D18B78812B92
:1032F00004D0112804D0102802D004E008467047FA
:103300009378902B0BD0122801D0012802D190780D
:10331000812804D09078862801D00846704710464E
:103320007047F8B56C4E0446308DC0070CD130465E
:10333000283003F0C9FD002806D06A4803F06CFB72
:1033400030462830C046C046ED2080002018054693
:1033500003F0C0FC644F002814D0F06A022810D19A
:10336000A068FEF7D0FD00280BD1F06201215F4874
:1033700003F09EF90021386803F09AF9A068FEF77F
:10338000E3FD95E6594803F082F9012804D0386836
:1033900003F07DF9002812D10021544803F088F988
:1033A0000121386803F084F9A068FEF7D3FD4D4889
:1033B00003F017FB4B4803F00CFB0020F062F06AAF
:1033C000002804D1474803F017FB2828D9DDA0685E
:1033D000FEF799FD0028D4D129892868415CA068AE
:1033E000FEF75BFD284603F02BF9284603F072FC3C
:1033F000002802D00220F0625AE60120F06257E66F
:10340000F0B589B005463A48006802900020C043F4
:103410000190002600242846FFF783FFBF2080008C
:1034200028180746FEF7B5FE6A4610720890079006
:10343000304828180690FEF7A7FE6A465072079992
:10344000002901D100280BD019225201AA18059297
:10345000172252010899AA180492002914D029E0D1
:1034600038460699FEF7D3FF002805D001206946AB
:1034700048723E46022443E039462846069AFFF742
:1034800029FF064601243BE0002813D03846069960
:10349000FEF7BDFF00280AD03E4605990020887639
:1034A00004990877032401206946087228E03E4603
:1034B000012425E00899002922D0002820D138468F
:1034C0000699FEF7A4FF002827D03E460599002064
:1034D0008876049908770FE008010020FC05002099
:1034E0000501002058060020EC0000202C030020DD
:1034F000888A00083A0300000120694648720324C4
:103500000720C00128180390032000022F18012C67
:1035100033DBB078902803D02FE0069E0124EFE73C
:10352000022C00DB0224301D03990278072309686E
:10353000DB0194468A4220DB039949688C451CDCF8
:10354000F96F89004919C9188A7AA24215DC8A7C68
:10355000A24203DB4A7C83789A420ED2624607235A
:10356000DB010A74F96F89004A19D1188C748178CB
:10357000F86F80004219D0184174012C31DBB0780B
:1035800081282ED1022C00DB02243078082828D193
:10359000F96F7078890007264919F60189190A7AA6
:1035A00090421ED0039B1B6898421ADB039B5B680A
:1035B000984216DC8B7AA34213DCA34206DA087425
:1035C000F86F80004019801984740AE0904208D98D
:1035D0000B7C934205D20874F86F80004019801963
:1035E0008474002602A8805D002838D13E207043F4
:1035F0004119BF2080000C18A07881280DD08628A2
:1036000020D090282BD1E87B102801D0112826D17A
:1036100021462846FFF728FE21E0E87B012801D05B
:1036200012281CD121462846FFF783FD01902078FF
:103630000A2814D303986179406881420FDB002087
:1036400001900CE02078062809D16078602806D126
:1036500021462846FFF73CFDB86F401CB867761C32
:10366000022EBFDBE87B012805D0102809D01128E5
:1036700007D0122803D128460199FFF754FB09B05F
:10368000F0BD2846FFF7B2FCF9E770B506460C46D8
:10369000207935464035002819D0012816D16278A6
:1036A000611DD21EFE4800F05BFEFEF77BFE01208E
:1036B00028706278611DD21EFA4800F08AFE687098
:1036C00002232A4621463046FFF737FA70BDA0791B
:1036D00027280ED2002028700021F24806E06279E7
:1036E0004318D25C731840335A70491CA2798A423D
:1036F000F5DCA3792A465B1C21463046FFF71DFA0C
:1037000070BDF8B504460D461646E748016848689E
:10371000428902810846FDF7FBFDE4480178491C17
:103720000170032000022018C06F00280ED0DC4971
:103730004839896B0091C0B22A460099FEF7BEFC59
:10374000324632212846FEF729FDB1E4D4494839F2
:10375000896A0091EFE710B501290AD80322120205
:103760008018C167D248D34A89000068515CFDF7D0
:10377000A3FA10BDF0B5ED239B00C018438904895E
:10378000A34204D34568EB1A5B1E1B1901E0E31A40
:103790005B1E93421CD30023002717E0CC5C4689B4
:1037A0000568AC554489641CA4B244814568AC42A8
:1037B00000D1478104894589AC4206D1641CA4B27A
:1037C00004814568AC4200D107815B1C9342E5DB74
:1037D000F0BDF3B581B004460298017902297DD28B
:1037E00002980078552879D102984078112875D828
:1037F000082873D9083800900098002831D0204656
:10380000FFF7A9FF1020FEF781FD01200321002210
:1038100009026518FF23E96F253359430B1981000D
:103820005B1860335A76FF26EB6F253673431B19FE
:103830005B1860339A76EB6F73431B195B18603328
:10384000DA76EB6F73431B19591860310A76401C06
:103850004828DFDD07210020C9016218106000211F
:1038600027E0FF20E0736AE00020029B5B189E4681
:1038700073469E7A012383401E4216D01368002BA4
:1038800003D1CB001B185B1C1360CB001F187F1CDF
:10389000BC465760FF27EE6F25377E4367463619D3
:1038A000BF000123F6196036B376401C0828DFDB21
:1038B000491C00988142D7DB07211068C90160616B
:1038C00000239361EA6F9200121952181074E86F86
:1038D0008000001940184374E86F00E038E0800071
:1038E000001940188374204604220D30029900F01C
:1038F00037FD5B20C000201803F06BF80420E06166
:1039000069480068FDF704FDE86F002821D064488D
:10391000029910380D22891D054600F05AFD002835
:103920000DD05F4809210C3800F033FD009A029950
:10393000121D891D284600F013FDFEF733FDFF2000
:10394000224640321070012320460299FFF7F5F815
:10395000FEBD029952480D22891D203800F039FD24
:103960000028ECD04E4809211C3800F012FD009AC6
:1039700002994B48121D891D203800F0F1FCFEF71A
:1039800011FDDCE7F3B583B0044604980079022802
:103990007ED20498007855287AD1049840780C2873
:1039A00076D8042874D900200190FF2022464032A6
:1039B0001070012320460499FFF7BFF80120FEF79D
:1039C000A5FC204604220D30049900F0C9FC04989F
:1039D00001792046FFF7BFFE0120032109020023E1
:1039E0006118FF25CA6F25356A4315198200AD1885
:1039F00060356B76FF26CD6F253675432D19AA18D5
:103A000060329376401C4828EBDDC86F07228000A7
:103A10000019D2018018056985600020A31818607C
:103A200000222EE00020049DAD180295029D6E79C3
:103A3000012585402E4220D0D5002D186D1CAC46A6
:103A40005D601D68002D01D165461D60CE6FB646D4
:103A5000B60037190726F601BE19367AB44501D1EA
:103A600001250195FF27754625377D4367462D19AA
:103A7000BF000126ED196035AE76401C0828D5DB65
:103A8000521C04984078C01E9042CBDC019800E0A4
:103A90004BE000281FD10720C0011A78CD6F0BE042
:103AA0008806002020FC0008C0000020050100203E
:103AB000BC000020788A0008AD002D192D182A724C
:103AC000CD6F0022AD002D192D186A72CD6FAD009B
:103AD0002D19281882721A78CB6F07209B00C0011D
:103AE0001B191B181A74CA6F00259200121912189C
:103AF0009574CA6F9200121910184574C86F0C2182
:103B00004843B92100198900401802F075FFFC49AB
:103B1000884201DDA56101E00120A061E5616561E8
:103B20005B20C000201802F054FF05B0F0BD70B556
:103B30000646344620342546A078112859D01ADC90
:103B400002285FD035464035032866D0042825D0AA
:103B50000E280FD16078211D801EC2B23046FFF7BB
:103B600009FE6078801E287001232A4621463046CF
:103B7000FEF7E3FF70BD122827D030285FD03D2824
:103B8000F8D16079002839D00020FEF74EFB0123E0
:103B9000221D21463046FEF7D0FF70BDA079617925
:103BA0000002401800212970C217D20D1218520AC3
:103BB0005202801AD34A105C6870A97003232A4607
:103BC00021463046FEF7B9FF70BD032000023418CD
:103BD000A06FC0B2FEF773FBCB48E16FCB4A890000
:103BE0000068515CFDF768F829463046FFF7CAFEC9
:103BF00070BD29463046FFF7ECFD70BD0020FEF792
:103C000002FBC4E7C24DA86800F0CEFB431C21466E
:103C10003046AA68FEF791FF70BD21793046FFF764
:103C20009AFD61792970324647323046FFF769FDC7
:103C300008232A4621463046FEF77FFF70BD2946FD
:103C40003046FFF722FD70BDF8B505460F46164613
:103C5000F4B255212868FDF706FE31462868FDF7C5
:103C600002FEF2B239462868FEF749F8002003E068
:103C7000395C0919CCB2401CB042F9DBFF2001309D
:103C8000001BC1B22868FDF7EEFD5EE51CB50446D9
:103C9000A04802F0B1FEA0A106C9019200919C4A81
:103CA0006B4651785970491C5170D87000121871C8
:103CB000052269462046FFF7C7FF1CBDF8B504463C
:103CC000934F388CC0070CD13846203003F0FCF8F5
:103CD000002806D0924802F09FFE38462030C046A9
:103CE000C0462046FEF7B4FE00900B2189016618FD
:103CF000B32189000098651800281ED02046203086
:103D00008078000605D48749082008702046FFF710
:103D10000EFF01202073304602F05BFE284602F0C1
:103D200058FE7F4802F055FE00207862FEF7F8FA50
:103D30002046FFF765FB009807E52068FDF7D5FFF3
:103D4000002807D0207B002807D002280ED00128A9
:103D500017D028E000202073E8E702202073704885
:103D600002F037FE6E4802F03CFE1CE06C4802F0A8
:103D700043FE01466C48814215DD694802F029FE88
:103D800011E0786A02280EDB304602F035FE01466B
:103D90006548814207DD624802F01BFE604802F080
:103DA00020FE02202073284602F026FE0146207BDA
:103DB00001280DD07D2000018142B7DD2046FFF7AC
:103DC00065FF284602F005FE786A401C7862ADE780
:103DD0007D208001F0E770B50446E07BFF2824D108
:103DE0005B20C0002018054602F006FE0146E0698F
:103DF000C830814206DC284602F0FEFDE169C83089
:103E0000884212DA284602F0F7FDE0610320000242
:103E10002418A06FC0B2FEF752FA3B48E16F3B4A4C
:103E200089000068515CFCF747FF70BD10B5006861
:103E3000FDF75BFF10BD00210173704710B5002036
:103E4000002303E00C78491C60405B1C9342F9DBC3
:103E500010BD4A78521EF1E7012103221202821896
:103E6000D26FFF2325335A43121888001018603090
:103E7000837E002B02D0407E002804D0491C4829B4
:103E8000F3DD012070470020704710B54A780068C4
:103E9000521CD2B2FDF733FF10BDF8B504460F46F1
:103EA00016461D4655212068FDF7DDFC691C20687B
:103EB000FDF7D9FCB978802001432068FDF7D3FCD9
:103EC000EAB231462068FDF71AFFB878802108432E
:103ED0004019401CC0B2002103E0725C1018C0B24F
:103EE000491CA942F9DBFF210131081AC1B220683F
:103EF000FDF7B9FCB3208000201802F06AFD24E42D
:103F0000701700008A8A0008BC000020788A000828
:103F100008010020F00500207700000000000000EC
:103F20004C060020B4000020E02E000070B58CB0DC
:103F300004462068FDF7D9FE0028FAD02068FDF776
:103F400043FD25466835009502AB06AA0AA92068FC
:103F5000FDF71BFE042809D17D2636012B4632468B
:103F60002B492068FDF7D9FE0028F7D02068FDF71F
:103F7000F9FD0CB070BD70B5064600250124E1B214
:103F80003046FFF708F8002800D06D1C641C482C50
:103F9000F5DD284670BD70B506460C46E07835461E
:103FA0004035002819D0012816D16278211D921EB3
:103FB000184800F0D5F9FEF7F5F90120287062786D
:103FC000211D921E144800F004FA687002232A464C
:103FD00021463046FFF761FF70BD607927280ED279
:103FE0000020287000210C4806E022794318D25C9A
:103FF000731840335A70491C62798A42F5DC637940
:104000002A465B1C21463046FFF747FF70BD000083
:104010009C2C00088806002020FC00081FB50446E0
:1040200001F08EFC0021009101940120029003A96F
:10403000684601F0D9FB002805D0002401F032FCCD
:10404000204604B010BD0124F8E7FEB506460D4633
:104050001746684602F0E0FC002401F071FC684657
:1040600002F0BFFC0DE0285D291949780A020243DD
:1040700000233146012001F01FFC002801D1B61CAD
:10408000A41CBC4207DA684602F0B6FC01467D205B
:10409000C0008142E7DB01F005FCBC4201DB0120EE
:1040A000FEBD0020FEBD10B5002303E0C45C0C7013
:1040B000491C5B1C9342F9DB002010BD70B504461F
:1040C00017E0206E616E884201D0012000E00020E0
:1040D000002814D0606E411C6166E16D0D5CA16E1C
:1040E000606E491E00F001F961662946201D04F04A
:1040F000E9F8201D04F004F90028E2D170BD012286
:104100000021204602F0FDFA70BD30B589B00446AA
:10411000201D04F0F5F8002832D0012200212046AD
:1041200002F0EFFA2046FFF7C9FF5A49204606C9B8
:10413000079108920121079A089B02930192002A95
:104140000BD1089A079B04920393D20718D0089AC0
:10415000079B05930692002A12D0089D079C0346F0
:104160000246069505941A64069C059A9C645A6456
:10417000494A5A650022DA630122001D04F058F80A
:1041800009B030BD10B51C4602F0D8FA43490160B1
:104190005C30214604F02FFC5C38C46610BD10B5BD
:1041A00004463E48206001220021204602F0A9FA80
:1041B00020465C3004F02CFC5C3810BD10B5FFF7D5
:1041C000EEFF02F0A8FD10BD0120704710B502F00F
:1041D0007CFA10BD70B505460C462846E1B25C304D
:1041E00004F01DFC2846FFF790FF204670BDF8B58F
:1041F00006460D46002D14D02C4637465C3703E0AA
:10420000641C384604F00BFC21780029F8D10A21FF
:10421000384604F004FC3046FFF777FF601B401C73
:10422000F8BD0020F8BD0FB410B592B0044640218F
:1042300002A800F0AEF816AA019202A8159902F0A1
:10424000C5FD0246402A05DD002012B010BC08BCA6
:1042500004B01847206802A9C36820469847F4E7CD
:10426000F7B50D46002D12D0002A10D02C46A61806
:10427000009F5C3704E02178641C384604F0CFFBD3
:10428000B442F8D10098FFF740FF601BFEBD00204C
:10429000FEBD00008C8C00081F89000808910008F2
:1042A000042104A003F0E8FA034908600349086008
:1042B000FBF706FF3A747400EC090020D8090020CF
:1042C00038B50546684605700C460868002301228B
:1042D000694603F057FB002802D00020C04338BDD8
:1042E000E068401CE060284638BD30B50B4601460A
:1042F00000202022012409E00D46D5409D4205D32F
:104300001D469540491B2546954040191546521EAD
:10431000002DF1DC30BD70B500242546002801DAFF
:1043200001244042002901DA01254942FFF7DDFF5F
:10433000AC4200D04042002C00D0494270BD10B5C4
:10434000202A04DB0846203AD040002110BD0B464D
:10435000D340D0402024A21A91400843194610BDF2
:1043600003460B439B0703D009E008C9121F08C08E
:10437000042AFAD203E00B780370401C491C521E39
:10438000F9D27047D2B201E00270401C491EFBD244
:1043900070470022F6E710B513460A460446194650
:1043A000FFF7F0FF204610BD421C0178401C002999
:1043B000FBD1801A704710B5002200E0521C835CCC
:1043C0008C5CA34201D1002BF8D1D8B2E1B2401AE3
:1043D00010BD30B504460020034600E05B1C93424C
:1043E00003D2E05CCD5C401BF8D030BD03460A78B8
:1043F0000270401C491C002AF9D11846704730B59C
:1044000005460020034600E05B1C934205D2EC5CAD
:10441000C85C201A01D1002CF6D130BD00B58DB09A
:1044200009900B9000920020C0430A9000200C904D
:1044300004480690044807906A4609A800F00AFC60
:104440000DB000BD754C0008954C00080FB400B5C8
:104450008DB009900B9010A900200091C0430A90E4
:1044600000200C9006480690064807906A4609A866
:104470000F9900F0EFFB0DB008BC04B01847000026
:10448000754C0008954C0008FFB50027FF4383B02A
:1044900000205C6801909E681D46A9697F1C0498F5
:1044A00088470090296A88470028F6D10098401C68
:1044B0000CD0032040028443002E19DD600614D581
:1044C00000982B2809D02D280FD103E00020C043ED
:1044D00007B0F0BD012080020443A9697F1C049845
:1044E0008847761E0090002E02DD0098302803D009
:1044F0000598002825D035E0012040020443A96931
:10450000761E7F1C049888470090002E03DD7828D3
:1045100005D0582803D00598002810D022E005982F
:10452000002801D010281DD1012040028443A96930
:10453000761E7F1C049888470090102002E0082017
:1045400000E00A2005900DE0012149020C43059A84
:104550000199761E514308180190A9697F1C04989F
:1045600088470090002E05DD0599009800F09EF820
:104570000028E9DAE96904988847A00502D40120F7
:10458000C043A5E7E00722D1600611D56005019878
:1045900000D5404229680A1D2A600968220501D514
:1045A000087014E0220701D5088010E008600EE0D2
:1045B0002868011D29600068210502D50199017054
:1045C00005E02107019901D5018000E0016038462E
:1045D0007EE7000070B5054C054D03E0206800192A
:1045E0008047241DAC42F9D170BD000054930008EF
:1045F0005C93000841000A0E40020121400AC905EF
:1046000010B540187F2A02DA0020014610BD0021B3
:10461000962A03DC96239A1AD04010BD963A00F0F1
:1046200035F810BD10B500F069FD10BDF0B51FB430
:104630000646002082B005464024019100901BE010
:10464000019922460F463046FFF779FE049A059BF2
:10465000801A994110D310461946224600F016F8E8
:10466000361A8F410197224601200021009F00F059
:104670000DF838184D4100902046641E0028DFDCFC
:10468000019B00982946324607B0F0BD10B5202A9C
:1046900004DB0146203A9140002010BD91402023C8
:1046A0009C1A0346E3401943904010BD3A2800D2BB
:1046B0003038202302469A43412A01D31046373826
:1046C000884201D30020C0437047FFB50025ED4369
:1046D00085B00020009001909F685E681C46A1692B
:1046E0006D1C069888470290216A88470028F6D1F9
:1046F0000298401C0CD0032040028643002F19DD95
:10470000700614D502982B2809D02D280FD103E06C
:104710000020C04309B0F0BD012080020643A1691A
:104720006D1C069888477F1E0290002F02DD0298BC
:10473000302803D00798002828D024E00120400228
:104740000643A1696D1C7F1E069888470290002FC2
:1047500003DD782805D0582803D00798002810D00A
:1047600011E00798002801D010280CD10120400248
:104770008643A1696D1C7F1E069888470290102011
:1047800000E008200790C017039016E00A20F9E720
:104790000120400206437F1E039B079A019900985F
:1047A00000F0F6FC029AD31780185941019100904D
:1047B000A1696D1C069888470290002F06DD0799B5
:1047C0000298FFF773FF02900028E1DAE16906988A
:1047D0008847B00502D40120C0439BE7F00710D101
:1047E000700610D5700505D50098019B0022414246
:1047F0009A4101E0019A00992068031D2360006836
:1048000006C0284686E72068011D21600068019ADD
:104810000099F5E7FFB5002083B000905068019043
:1048200091691446002697680498884705460C99B4
:104830000698084305D009E0A169761C04988847CA
:104840000546216A284688470028F5D1681C03D010
:104850000198C00704D017E00020C04307B0F0BDA6
:104860002068011D2160006800900DE00198C007DC
:1048700004D1009805700098401C0090A169761C36
:104880007F1E049888470546002F1CDD681C1AD03F
:10489000069800280FD0E817C00E401941118A0071
:1048A00006994009511840012A1A096801209040D0
:1048B0000142DBD107E00C980028D7D1216A2846B5
:1048C00088470028D2D0E169049888470C980028CE
:1048D00007D1002E05DD0198C00702D10098002104
:1048E0000170A068B84204DD0C98002804D0002FA5
:1048F00002D00120C043B1E73046AFE7FFB50878EA
:1049000085B01546FF2805D0491C2D2804D000226B
:10491000002407E000240BE00122F9E70A235C43AE
:104920000419491C0878FF28F8D1002A00D06442F5
:10493000002001902A7801462D2A01D02B2A04D18B
:104940006D1C2D2A0DD00022019200262F78FF2FFA
:1049500009D00A2200236D1C00F01AFC381871419E
:10496000F4E70122F0E7089AA218039202460A43EC
:104970000DD00024B24AB14D2646009200F05CFEF4
:10498000049003980291002807DA47421AE00021B8
:1049900005980A4606C009B0F0BD074612E0F807C0
:1049A00007D022462B463046009900F093FA06467F
:1049B000009122462B461046194600F08BFA044619
:1049C0000D467F10002FEAD10398009B0028029922
:1049D0000498324602DA00F0E5FA01E000F07AFAD3
:1049E000019A002A02D00122D2075140059A03C23F
:1049F000D1E7FFB591B0002009900025ED432E20AE
:104A00009E685C681F460190B9696D1C12988847C2
:104A10000090396A88470028F6D10098401C0AD0D7
:104A20000D20C0018443002E12DD00982B2809D0F0
:104A30002D280DD103E00020C04315B0F0BD0120AA
:104A400080020443B9696D1C12988847761E009055
:104A500003A9600501D52D2000E02B206A461073C4
:104A6000491C0CA80F9102900AE0B9696D1C1298BC
:104A7000884700900120400204431398761E056089
:104A8000002E02DD00983028EFD00199009888426E
:104A900046D18020044308E00998401E0990012077
:104AA000400204431399681C0860B9696D1C761EA6
:104AB0001298884700903028EED031E00199884262
:104AC00005D1200603D480200443761E1EE0009802
:104AD00002F012FB002826D001204002044307A95F
:104AE0000F980331761E88420BD200980F99303808
:104AF00008700F98401C0F90200607D50998401E9B
:104B000003E0200602D40998401C0990A00502D5B4
:104B10001399681C0860B9696D1C12988847009049
:104B2000002ECBDC59E0002E57DD0098652801D01F
:104B3000452852D1A00550D5032000028443B9690D
:104B40006D1C761E129888470090002E0CDD2B28D5
:104B500004D02D2808D1FF2001300443B9696D1C11
:104B600012988847761E0090E00501D52D2100E0BF
:104B70002B21029801700298401C0290019025E0C0
:104B80000120400204430EA902980131761E88429A
:104B90000ED20098029930380006000E087003D13A
:104BA0000299019881420AD90298401C029006E0BD
:104BB000E00501D5234801E0224840420990B96947
:104BC0006D1C12988847009013980560002E04DD34
:104BD000009802F091FA0028D2D1F969129888471A
:104BE0000F99FF200870029903AA087000200A900C
:104BF0000B900CA90AA8099BFFF780FEA00502D420
:104C00000120C04319E72420044209D0E00713D152
:104C100038680B9A0A99031D3B60006806C00BE0D8
:104C20000B990A9800F016FD0146E00704D1386898
:104C3000021D3A60006801602846FEE6000024403C
:104C40000000F03FF1D8FFFF0268137851180160AF
:104C50001846704710B5D16004495161044911628A
:104C600000211161114600F0EBFA10BD494C00081B
:104C7000315200084268002A08D001680B78491CAC
:104C8000002B03D0521E06C0184670470121C16098
:104C9000881E70474268002A0BD0C3680168002B49
:104CA00007D183688B4204D0491E521C06C00020E5
:104CB00070470020C043704700487047E80100205B
:104CC0007047000000487047EC0100200920704741
:104CD0000920704770477047092070470248014615
:104CE0004860001D70470000F0010020002904DA30
:104CF000401C490001D140084000704770B40024B6
:104D0000050C05D11024000402D1002921D0112462
:104D1000050E01D100020834050F01D10001241D48
:104D2000850F01D18000A41C002801DB4000641C19
:104D3000002908D020252E1B0D46F540A14000D0AB
:104D400001212943084301061B1B000ADB1D02D574
:104D5000002070BC7047DB05181880180029F8DAAD
:104D6000401C4900F5D170BC40084000704700006D
:104D7000F0B507460846584087B0C00F0490480079
:104D80000E46590040084908BC1A884105D23846E9
:104D900031461E4617460B4602465800400810434F
:104DA0004CD0300D039040055900400D490D059041
:104DB000401A0290402872DA18030121000B0905FD
:104DC0000843019004980092002805D001995242AE
:104DD0000020884100920190029840210A1A01990E
:104DE0000098FFF753FC05460C466B4607CB00F0D6
:104DF0000CFAC0197141039A0E0D0023D7175640C3
:104E00001A467A40164344D0049A002A2DD0029ABA
:104E1000012A039A15DC1205C01A914101263605B4
:104E2000001C7141D20F059ED20700930192029699
:104E30002A46234600F0ADFB07B0F0BD38463146A8
:104E4000FAE71605224A0F46B218C01AB7410121E7
:104E50000905001C4F4100187F411146181879417F
:104E6000E20F10436D19644113E0E2076D0815432A
:104E70006408C2071443039A01261205C01A91411F
:104E80003605001C7141CE07400830434908C01860
:104E900051412A46234600F06FFBCDE7FFE7049817
:104EA00001224000C117121A00238B410498314699
:104EB000C417381AA141EEE730B40124E407634077
:104EC00030BC55E730B40124E407614030BC4FE703
:104ED0000000E0FFF0B51FB488B00B9909980024DA
:104EE00048400999C00F490049080991C0070B992A
:104EF0000090490049080B9109990898A646084373
:104F00001CD00B990A98084318D009980124400036
:104F1000420D4800410D099824050003000B204371
:104F200009900B980003000B20430B9050181C496C
:104F30004018002201901446104605E0002001466A
:104F40000DB0F0BD032801DA034600E003239C46C0
:104F5000C11A0AAE0AE05F0008ADED5B4F00F75BD7
:104F60007D430027AA187C41491C5B1E6145F2DD88
:104F7000410004AB5A522104120C0A43240C401C79
:104F80000828DFDB0198029000997046019100909B
:104F9000059B049A0799069800F0FBFAD0E70000F9
:104FA0000DFCFFFFF0B50C465C4085B0E40FE40754
:104FB00003944C00002664085900944649080246B0
:104FC0000296224321D062460A431ED06200570D4A
:104FD0004A000E032303550D012402462C492405E3
:104FE000781B1B0B360B4018234326436146009069
:104FF0001C46501AB44103D30098401C009002E0B4
:10500000921800985B41002803DA0020014605B0A1
:10501000F0BD0020012109050746864611E06446DF
:105020001D46141BB54106D36546521BB341744659
:1050300007430C43A646CD07400849082843921869
:105040005B4105460D43EAD11046184313D0604634
:10505000194650407140084306D06046101AB341CB
:1050600006D20122002306E000220123DB0702E032
:105070000122D2435310009874460105381C614147
:10508000029C039D0019694100F076FABFE7000019
:10509000FD0300004A0009030123090B1B05194306
:1050A0000A4B10B5520D9A4202DA0020014610BD9B
:1050B000064B34339A4203DC9A1AFFF740F910BDCD
:1050C000034BD218FFF7E2FA10BD0000FF03000007
:1050D000CDFBFFFF10B5002904DB0124E4074042AB
:1050E0008C412146002B04DB1C460123DB07524286
:1050F000A341994200D1904210BD000010B500F0CC
:105100000EF80169002903D000220261884701E0FE
:1051100080688047C046C04610B5C046C04670B5DE
:10512000FFF7DCFD04680546002C15D1202002F0B5
:105130009DFE040012D0002009492C6003C40949D7
:1051400021602071A060E06007492061083C0029CF
:1051500001D000F09BFAE061204670BDC046C04619
:10516000000000001951000800000000064C012555
:10517000064E05E0E36807CC2B430C3C98471034FF
:10518000B442F7D3FAF79AFF349300085493000817
:10519000F0B51FB486B000200090019002900698F0
:1051A000069980B204900798090C02040014114378
:1051B00007900027089D099806913E463C460390BB
:1051C0000398A9B20204000C039004982D0C154317
:1051D000484300212246FFF759FAC719714110349C
:1051E0000E46402CECDB3846029AFFF74FFA009A45
:1051F000019B801800905941029801911030029053
:105200004028CCDB00980BB0F0BD10B5202A06DB9F
:10521000CB170846203A1041C1170B4306E00B4656
:105220001341D0402024A21A91400843194610BDD2
:1052300010B50F21C0B2490200F04AFA10BD0000BB
:10524000F3B58DB000200A9001200B90002608468F
:105250000C300C46099062690121099890470500BD
:105260002ED0252D2DD0216A8847002818D06269BC
:10527000012109989047216A88470028F7D1411EEB
:1052800062690998904700E0761CA1690D988847EB
:10529000216A88470028F7D1E1690D988847DAE745
:1052A000A1690D9888470746A84201D1761CD2E72C
:1052B000E1690D9888477F1C02D10A98002877D0B1
:1052C00049E1002762693D463946099890472A28F6
:1052D0000CD16269012109989047012506E00A2155
:1052E0004F433F18303FEBD4102005436269012142
:1052F00009989047014630390A2903D29B498F42C9
:10530000DEDCECE7E90600D4994F6C280AD04C2883
:1053100010D0682824D06A282ED074280CD07A287F
:105320000AD00DE062690121099890476C2823D0CA
:1053300004211CE02020054362690121099890475F
:10534000A760656065284FD026DC582839D01ADC64
:10535000452849D012DC252834D04128B0D143E07B
:105360006269012109989047682802D008210D43FD
:10537000E6E70120C002DEE70220DCE7462833D062
:1053800047282CD130E05B2870D061282CD06328CE
:105390006CD0642823D161E06F284FD009DC6628E7
:1053A00022D0672820D0692826D06E2817D12EE079
:1053B000CDE070284DD073286FD075284ED0782856
:1053C0000DD154E0A1690D9888470546252800D1E4
:1053D0006CE7E1690D9888476D1C00D16DE7BAE074
:1053E0000A224CE00A2252E0012023466A46C043CA
:1053F0000D99FFF7FEFAA3E02846402108436060BC
:10540000A807234601D5002239E000223FE0E80743
:1054100000D020E72068011D21600068290501D522
:10542000067018E7290701D5068014E7A90703D5F8
:10543000F117066041600EE706600CE72846402140
:1054400008436060A807234601D5082217E0082218
:105450001DE0484928460840606016E02846402183
:1054600008436060A8072346BCD5B9E715E0284685
:10547000402108436060A80707D523461022012079
:10548000C0430D99FFF721F95AE02346102201206D
:10549000C0430D99FEF7F8FF52E000210C910B4636
:1054A0000091632802D05B2807D043E0E80601D4CE
:1054B0000120A060012000903CE062690121099870
:1054C00090475E2805D101200C9001466269099839
:1054D00090472169002906D10B4601AA8F00491C7B
:1054E000D3510829FADB002835D0216900290ED1D3
:1054F000C117C90E09184A11930001AA9A1849093F
:105500004901411A0120136888400343136062690E
:105510000121099890475D28E5D10C98002808D012
:10552000002001AB81005A58401CD2435A50082831
:10553000F8DB01AB01202246C0430D99FFF76AF961
:1055400000280ADA401C06D10B98002803D000205E
:10555000C0430FB0F0BD0A98FBE7E90702D10A99F2
:10556000491C0A91361800200B9074E6CCCCCC0C68
:10557000FFFFFF7FF1F7FFFF10B5002B08DA0024D3
:10558000401C614192185B411A4301D14008400020
:1055900010BDF0B51FB482B005460C0003D008461C
:1055A00001F026FC02E001F023FC203002460090CE
:1055B00021462846FFF76AF8049B059A04460F46E1
:1055C00018431143084314D0184610431BD00098C9
:1055D00040210A1A18460599FEF7B1FE05460E4607
:1055E000009A05990498FFF751F8084305D0012067
:1055F00004E02046394607B0F0BD0020C11705433E
:105600000E432C43374300990E986305401A7905E1
:10561000E40A00220C43FD0A0A3002D500200146AC
:10562000E9E70105101969410C9C0D9D00196941BC
:10563000FFF7A2FFDFE700000EB5054A0292002245
:10564000009213460192FFF7A4FF03B000BD0000D3
:1056500033040000CB0FDB07490010B549080246B0
:105660000A4307D00A0D07240903E401090B121BA2
:10567000002A01DC002010BDC900440F0C43C1000A
:10568000E018D2058018FFF731FB10BD10B5882057
:1056900002F0ECFB002801D00021017010BD802930
:1056A00004D8002802D00178002901D000207047DA
:1056B0000121017008307047002803D002460832EB
:1056C000914201D000207047002101707047000016
:1056D0007F2801D9002207E0054B42089A5CC007E9
:1056E00000D112091207120F0120904008407047A4
:1056F000BD90000870B58C180578401C6B075B0FD7
:1057000001D10378401C2A1106D10278401C03E025
:1057100006780E70401C491C5B1EF9D12B0705D47E
:105720000023521E0DD40B70491CFAE70378401C6D
:10573000CB1A921C03E01D780D70491C5B1C521E95
:10574000F9D5A142D8D3002070BD10B502F0F5FB09
:1057500002F0F2FBFAF7A0FF10BD10B5002101F036
:10576000CAF810BD06493422CA600A6902231A43E6
:105770000A614861086940221043086170470000CF
:105780000020024070B5044600F0C6F9144D0646EC
:10579000E868C0070DD0601C08D0002C04D000F0D1
:1057A000BBF9801BA04201D9032070BDE868C00787
:1057B000F1D1E868C00602D4E86840070ED5E86871
:1057C000C106084801D502214176E968490703D599
:1057D000417E012211434176012070BD002070BD41
:1057E00000200240D8060020F3B505462A4881B0C3
:1057F000017E012907D0012101762848FFF7C2FF69
:10580000002803D043E0022003B0F0BD2968202720
:10581000234E01291DD000220299D2430A60A968B3
:105820006C6889026118A14231D902272046FFF72E
:1058300099FF1A48FFF7A6FFF168890601D52021D4
:10584000F1603169B9433161002817D002990C60C9
:105850001DE03420F0603069042420433061306959
:105860004021084330610D48FFF78CFFF16889063D
:1058700000D5F7603169A143316108E00121890257
:105880006418AA68696892028918A142CED80249B0
:1058900000220A7603B0F0BDD806002050C30000F5
:1058A0000020024003480169802211430161002069
:1058B0007047000000200240F0B51FB406461D48A6
:1058C0000025017E012907D0012404761A48FFF73C
:1058D00059FF002803D027E0022005B0F0BD012EBB
:1058E00002D0022E00D00426144C019869000F1833
:1058F0002A0103990298FEF722FD3421E160216913
:1059000001221143216138800B48FFF73BFFE1681A
:10591000890601D52021E1602169490849002161FA
:105920006D1CEDB2B542E0D3024900220A7605B003
:10593000F0BD0000D806002050C300000020024047
:1059400005480169090605D50449416004494160DB
:105950000020704701207047002002402301674566
:10596000AB89EFCDF0B4002301240A689C402240AB
:10597000A2427DD14D68022D01D0122D0ED1DD083D
:10598000AD002D18AC462D6A5E07F60E0F27B74006
:10599000BD430F69B7402F4365462F6206685F001D
:1059A0000325BD40AC46AE430D79AD07AD0FBD40FC
:1059B000354305604D68012D05D0022D03D0112D12
:1059C00001D0122D0FD186686546AE433546CE68AC
:1059D000BE402E4386604568A5430C79E406E40F7B
:1059E0009C402C434460C5686446A5438C68BC4019
:1059F0002C43C4604C68E40047D5414CA66901259E
:105A00002E43A6619D083F4CAD002F19BC689D0731
:105A10002E0F0F25B540AC430925ED06A84201D154
:105A200000250FE0384DA84201D101250AE0374D8D
:105A3000A84201D1022505E0354DA84201D1032538
:105A400000E00525B5402543BD60324C25684E6811
:105A50009543F60300D51543256065684E68954368
:105A6000B60300D515436560A5684E68954300E010
:105A700040E0F60200D51543A560E5684E68954301
:105A8000B60200D51543E56034E09D081D4CAD001D
:105A90002D19AF689C07260F0F24B440A4463C4044
:105AA0000927FF06B84201D100270FE0164FB84280
:105AB00001D101270AE0154FB84201D1022705E0C4
:105AC000134FB84201D1032700E00527B740A74292
:105AD00010D1AE686446A643AE600E4C256895436F
